:020000040800F2
:1000000048500020C1010008491C0008811A00085E
:10001000151B0008DB1000089362000800000000B8
:1000200000000000000000000000000091550008E2
:10003000A119000800000000750800083D34000800
:10004000FB010008FB010008FB010008FB010008A0
:10005000FB010008FB010008FB010008FB01000890
:10006000FB010008FB010008FB010008FB01000880
:10007000FB010008FB010008FB010008FB01000870
:10008000FB010008FB010008FB010008FB01000860
:10009000E1100008FB010008FB010008FB0100085B
:1000A000FB010008FB010008FB0100086D59000876
:1000B000FB010008555A0008FB010008FB0100087D
:1000C000FB010008FB010008FB010008FB01000820
:1000D000FB010008FB0100088D5F0008FB01000820
:1000E000FB010008FB010008FB010008FB01000800
:1000F000FB010008FB010008FB010008FB010008F0
:10010000FB010008FB010008FB010008FB010008DF
:10011000FB010008FB010008FB010008FB010008CF
:10012000FB010008FB010008FB010008FB010008BF
:10013000FB010008FB010008FB010008FB010008AF
:10014000FB010008FB010008FB010008FB0100089F
:10015000FB010008FB010008FB010008FB0100088F
:10016000FB010008FB010008FB010008FB0100087F
:10017000FB010008FB010008FB010008FB0100086F
:10018000FB010008FB010008FB010008FB0100085F
:10019000FB010008FB010008FB010008FB0100084F
:1001A000FB010008FB010008FB010008DFF80CD090
:1001B00000F0CAFA004800470D63000848500020CC
:1001C000DFF83800016841F470010160BFF34F8F20
:1001D000DFF82C00016821F040410160BFF36F8F10
:1001E0000848804708480047FEE7FEE7FEE7FEE7CD
:1001F000FEE7FEE7FEE7FEE7FEE7FEE788ED00E04C
:1002000034EF00E0B5560008AD01000872B6704743
:1002100062B67047EFF3108072B6704780F31088B3
:10022000704730BF704720BF7047B0FA80F070470A
:1002300090FAA0F0B0FA80F0704790FAA0F0704702
:100240002DE9FE4F804681EA0300C00F0C46009066
:1002500021F0004123F00045B8EB0200A94105D28E
:100260004046214690461C460B46024623F000407D
:10027000104347D0270DC7F30A00C3F30A51029079
:10028000401A019040286BDAC3F3130040F4801B3E
:100290000098924620B10023D2EB030A63EB0B0BCC
:1002A00001985946C0F14002504600F0BFF9064699
:1002B0000D4650465946019A00F0D7F910EB080058
:1002C0006141002487EA115284EAE7731A4340D05F
:1002D000009A62B3019A012A4FEA075215DC001B0B
:1002E00061EB02014FF0004202EA0752CDE9004201
:1002F000001C41F5801132462B4600F0D7F903B0BF
:10030000BDE8F08F40462146F9E7001B61EB020192
:10031000001C41F5801300185B412018A2F500175E
:1003200047EB030140EAD570B6196D4111E06D0845
:100330004FEA360645EAC0754FEA0752001B61EBEB
:100340000201001C41F5801149084FEA30000019F4
:10035000514132462B4603B0BDE8F04F00F097B94B
:100360000098012240000023D0EB020263EBE0730F
:10037000009821464FEAE074B8EB000061EB0401FD
:10038000E9E783F000435BE781F0004158E72DE99E
:10039000FE4F81EA030404F0004421F00041009480
:1003A0004FF0000B23F0004350EA01045ED052EA04
:1003B00003045BD0C3F30A54C1F30A552C44A4F2DE
:1003C000F3340194A0FB0254C1F3130141F48011F2
:1003D000C3F3130343F4801301FB024400FB034EF9
:1003E000840A970A44EA815447EA8357A4FB0768C2
:1003F00002958D0A05FB07854FEA932C04FB0C54EC
:100400002705029D4FEA065847EA1637B5EB08055F
:100410006EEB070C870E920E47EA811742EA8312B1
:10042000A7FB0201B6EB0B0164EB00042B0D43EAC2
:100430000C335E1844EB1C50DA465146E7FB0201D0
:10044000C5F313044FEA0B3343EA14534FEA043263
:10045000019C43EA0603A4F10C040294009CCDE93C
:1004600000B400F023F903B0BDE8F08F002001468E
:10047000F9E72DE9F04D81EA030404F0004B21F087
:10048000004514464FF0000A23F0004150EA0502EF
:1004900020D054EA01021DD0C5F30A570246C5F325
:1004A0001303C1F31300C1F30A5640F4801543F45B
:1004B0008013A7EB0608101BD64608F2FD3873EB35
:1004C000050002D308F1010801E092185B41B8F180
:1004D000000F03DA00200146BDE8F08D00204FF444
:1004E0008011064684460EE0171B73EB050705D303
:1004F000121B63EB050306434CEA010C49084FEA63
:10050000300092185B4150EA0107EDD152EA030036
:1005100012D082EA040083EA0501084305D0101BCB
:10052000AB4106D20122002306E000224FF0004337
:1005300002E06FF0010253101AEB06004CEB085179
:1005400010EB0A0041EB0B01BDE8F04D00F09FB845
:100550000EB5C10F80EAE0700844CA07002140F2DE
:1005600033438DE80E000A460B4600F09FF803B0B7
:1005700000BD0EB540F2334102910021CDE90011DA
:100580000A460B4600F092F803B000BD70B5C1F307
:100590000A5201F000450024C1F3130140F2FF3379
:1005A00041F480119A4201DA002070BD40F23343D9
:1005B0009A42A2F2334203DC524200F046F800E0D5
:1005C00090402C43F1D0404270BD000030B5041E75
:1005D00071F1000404DB4FF00044404264EB010180
:1005E000141E73F1000405DB1C464FF00043524219
:1005F00063EB04038B4208BF824230BD30B5041E5A
:1006000071F1000404DB4FF00044404264EB01014F
:10061000141E73F1000405DB1C464FF000435242E8
:1006200063EB0403994208BF904230BD202A04DBEB
:10063000203A00FA02F1002070479140C2F12003F5
:1006400020FA03F3194390407047202A04DB203A34
:1006500021FA02F00021704721FA02F3D040C2F1E2
:1006600020029140084319467047202A06DBCB1729
:10067000203A41FA02F043EAE07306E041FA02F35D
:10068000D040C2F12002914008431946704710B58E
:10069000141E73F1000408DA401C41F100019218A5
:1006A0005B411A4301D120F0010010BD2DE9F04D4E
:1006B00092469B4611B1B1FA81F202E0B0FA80F2A3
:1006C00020329046FFF7B2FF04460F4640EA0A0088
:1006D00041EA0B0153465A46084313D0114653EAE8
:1006E000010019D0C8F140025046FFF7AEFF0546A1
:1006F0000E46504659464246FFF798FF084305D03C
:10070000012004E020463946BDE8F08D0020054375
:1007100046EAE0762C4337430A986305E40AA0EBE7
:1007200008000022FD0A44EA47540A3002D500209E
:100730000146E9E7010510196941DDE9084500199D
:100740006941BDE8F04DA2E7064C074D06E0E068C0
:1007500040F0010394E8070098471034AC42F6D308
:10076000FFF728FD6C6500088C65000870B58C18D3
:1007700010F8015B15F0070301D110F8013B2A11B5
:1007800006D110F8012B03E010F8016B01F8016BA2
:100790005B1EF9D12B0705D40023521E0DD401F89E
:1007A000013BFAE710F8013BCB1A921C03E013F867
:1007B000015B01F8015B521EF9D5A142D8D300209C
:1007C00070BD0000EFF3098141B1F1EE101A40F85D
:1007D000041D20ED200A3B490A6810607047B0EC08
:1007E000200A02C8E1EE101A37490A681060704703
:1007F00072B64EF62250CEF2000040F2FF01C0F277
:100800000001017040F22C10C2F20000016881F377
:10081000088840F2A200C2F2000040F2A301C2F236
:1008200000010A78027040F22415C2F2000540F27D
:100830002811C2F200010A682A60106880F3098852
:10084000EFF3148040F0020080F31488BFF36F8F41
:10085000BDE8F00F0FBCBDE8005006BC62B608470B
:100860001A484FF080510160704718484FF080518E
:100870000160704772B6EFF3098020E9F00F40F293
:100880002415C2F200052E683060744602F0FCFCAC
:1008900040F2A200C2F2000040F2A301C2F2000145
:1008A0000A78027040F22811C2F200010A682A6038
:1008B00044F0F40E1068B0E8F00F80F3098862B6D7
:1008C00070470000240100202801002004ED00E012
:1008D00021B1826842F00102826003E0826822F066
:1008E00001028260704700000021084A1168084A2E
:1008F0001140D0E900231A4383681A43C3681A439E
:100900001143044AC2F80413704700000423014055
:10091000E030FCFF0020014021B1826842F4807287
:10092000826003E0826822F480728260704721B1A5
:10093000826842F40072826003E0826822F40072EE
:100940008260704730B50246002000235068104C8A
:1009500020400D790C6844EA0524204350609068DB
:100960000C4C2040D1E903542C438D682C434D7925
:1009700044EA450420439060D06A20F470000C7D66
:10098000641EE4B2234340EA0350D06230BD00004D
:10099000FFFEFFFCFDF7FFC0F0B504460D4600204A
:1009A0000021092D11DDE068A5F10A0606EB4607D6
:1009B000072606FA07F18843A5F10A0606EB460664
:1009C00003FA06F10843E0600CE0206905EB4507F7
:1009D000072606FA07F1884305EB450603FA06F1F8
:1009E00008432061072A0FDA606B561E06EB860764
:1009F0001F2606FA07F18843561E06EB860605FAFF
:100A000006F10843606322E00D2A0FDA206BD61F3F
:100A100006EB86071F2606FA07F18843D61F06EB6A
:100A2000860605FA06F10843206310E0E06AA2F1A9
:100A30000D0606EB86071F2606FA07F18843A2F18A
:100A40000D0606EB860605FA06F10843E062F0BDE6
:100A5000816841F0804181607047000010B52DED44
:100A60000C8BB0EE409AF0EE609AB0EE41DAF0EE08
:100A700061DA04469FED690BB0EE40AAF0EE60AA81
:100A80009FED660BB0EE408AF0EE608A9FED630B3F
:100A900053EC102B634890ED000B51EC100BFFF75B
:100AA00095FD23D39FED600B53EC102B5D4890ED2B
:100AB000000B51EC100BFFF7A1FD17D39FED570B67
:100AC00053EC102B5A4890ED000B51EC100BFFF734
:100AD0007DFD0BD39FED540B53EC102B544890ED40
:100AE000000B51EC100BFFF789FD03D20020BDEC89
:100AF0000C8B10BDB0EE498AF0EE698A4D4890ED3E
:100B0000000B53EC102B51EC180BFFF73AFC41ECA7
:100B10001A0B9FED490B53EC102B51EC180BFFF700
:100B200055FD20D29FED460B53EC102B414890ED24
:100B3000000B51EC100BFFF761FD14D29FED3A0B47
:100B400053EC102B51EC180BFFF77AFB41EC1B0B0D
:100B5000384890ED000B53EC102B51EC1B0BFFF7BA
:100B600010FC41EC1A0B9FED360B53EC102B51ECA3
:100B7000180BFFF743FD1ED29FED2F0B53EC102BEC
:100B80002C4890ED000B51EC100BFFF71FFD12D21B
:100B90009FED250B53EC102B264890ED000B51ECEC
:100BA000100BFFF74DFB41EC1B0B53EC182BFFF721
:100BB000EBFB41EC1A0B9FED200B53EC102B51EC8F
:100BC0001A0BFFF71BFD01D2002090E79FED1E0BD3
:100BD00053EC102B51EC1A0BFFF7D9FB41EC1C0B1B
:100BE0009FED1B0B53EC102BFFF743FC41EC1B0B51
:100BF000194890ED000B53EC102B51EC1B0BFFF739
:100C00001FFB154A03C20B4880ED008B124890ED84
:100C1000000B84ED000B012069E7000000000000DC
:100C2000000000003000002000000000008076403E
:100C30003800002040000020000000000000244098
:100C40000000000000E075400000000000003A4095
:100C50000000000000004F404800002010B504F0E4
:100C6000A3FD04F0D1FD04F0EBFD10BD08B517E0C5
:100C70000C480D4991ED001B0C4991ED000BFFF75D
:100C8000EDFE38B1601CC4B2C82C04DD08A005F02C
:100C900003FB00E000246A4600210A2002F050FB1A
:100CA000E6E7000018000020380000203000002097
:100CB000416E67756C61725472616E7364756365C1
:100CC00072204552524F52203A4E554D203100006D
:100CD00008B512E009490988642201FB02F4E11712
:100CE00004EB1151C1F307300549097800F0D6F83B
:100CF0006A4600210A2002F023FBEBE752000020A5
:100D00002800002070B58AB0064600F0D4F900F043
:100D100046FD00F0C9F9044631480068B4FBF0F51F
:100D2000284602F0A7FB00F001FF09A801F04EFDE4
:100D300009A864210C232B4ACDE900102AA12E48D2
:100D400001F032F909A8032100220592CDE906211C
:100D5000089005204FF400713322284BCDE9013271
:100D6000CDE9031003200023254A26A100902A483C
:100D700001F0AEFD09A8032100220592CDE906216C
:100D8000089005204FF400713322244BCDE9013245
:100D9000CDE9031003200023214A22A10090264818
:100DA00001F096FD09A8032100220592CDE9062154
:100DB000089005204FF400713322204BCDE9013219
:100DC000CDE90310032000231D4A1EA100902448F2
:100DD00001F07EFD09A9234801F04EFE0AB070BD66
:100DE000CC630008D41F00204D79205061727469D3
:100DF00074696F6E00000000B41F0020B40700206B
:100E0000690E0008417070205461736B2054757234
:100E10006E4D6F746F720000F4010020B40F00205B
:100E2000D10C0008417070205461736B2042524B0A
:100E30005F4D6F746F720000B4020020B417002081
:100E40006D0C0008417070205461736B20416E6717
:100E5000756C61725472616E7364756365720000C3
:100E6000740300203401002008B511E0094890ED1A
:100E7000000B51EC100BFFF789FB04460648016894
:100E8000204605F003F86A4600210A2002F058FACD
:100E9000ECE70000180000202400002070B5044694
:100EA0000D461C48007820B101281BD002282FD104
:100EB00023E0002000F030F8281B052805DD642021
:100EC00000F02AF8012013490870281B10F1050FC3
:100ED00006DA6FF0630000F01FF802200D49087079
:100EE000012070BD681FA04205DA002000F014F850
:100EF0000020084908700120F3E7681D844205DAE4
:100F0000002000F009F80020024908700120E8E7FD
:100F10000020E6E75100002070B52DED028B04465D
:100F20000025632C00DD632414F1630F01DA6FF0F8
:100F30006204002C09DA604244B24FF48070144914
:100F400008804000891E088007E04FF48070104937
:100F5000891E08804000891C088004EB840085B24B
:100F60002846FFF706FB41EC180B9FED0A0B53ECEC
:100F7000102BFFF743FB01D240F2EF1529464FF04B
:100F8000804004F026FF2846BDEC028B70BD0000B7
:100F90001A0802400000000000F07E401CB501214C
:100FA000084604F027F90820009003208DF804007B
:100FB00000208DF807006946014800F0F2FC1CBDD6
:100FC0000000024000B599B00121880504F012F933
:100FD0002F480B902F480C9000200D9001200E9070
:100FE00000200F9010904FF400601190800012903C
:100FF000401113904002149000201590012016908B
:101000000020179018900A900AA9234800F09CFC31
:101010000121214800F08CFC0121080204F01AF99A
:1010200000200090019002904FF470600390684699
:10103000FFF75AFC002004908DF8140001208DF871
:10104000150000200690089001208DF8240004A9C6
:101050000F484C38FFF776FC0323012219460C4851
:101060004C38FFF799FC012109484C38FFF75FFC29
:10107000012107484C38FFF74FFC012104484C3848
:10108000FFF726FC02484C38FFF7E2FC19B000BD20
:101090004C200140520000201064024010B5FFF7C0
:1010A0007DFFFFF78FFF10BD1FB5684604F0E2F823
:1010B000019804B010BD10B500F016FD04F0B6FFA5
:1010C00000F052F8FFF7CAFD04F0B0F900F0B4FDEB
:1010D000FFF7E4FF04F036FA10BD00BFFEE70000A2
:1010E00010B588B002AA00211B4800F01BFA41F29B
:1010F0001431039888422DD19DF81000042829D17D
:101100009DF81200082825D107A9144800F0BCFF5B
:10111000134908600398000A096808701049039889
:1011200009684870002408E00DF11300015D0C48C7
:101130000068801C0155601CC4B2082CF4DB07A8B1
:1011400000210B460C22CDE9001005480168054836
:1011500003F02CFA08B010BD00640040B41F00205A
:1011600010000020F40400201CB500200090019025
:1011700000F0D2F800F0C2F900F090F900F0A6F803
:1011800040F22311684600F045FA1CBD10B5044634
:101190000B48844209D10121480604F04BF8002194
:1011A0004FF0007004F046F808E00121880604F0D2
:1011B00041F800214FF0806004F03CF810BD0000C1
:1011C0000064004010B50021837A012202FA03F185
:1011D0003D4A126842F001023B4B1A603A4A1C3207
:1011E00012688A43384B1C331A60027BCAB9364AEC
:1011F0000C3212688A43344B0C331A604288C3881D
:1012000042EA0343304A4032847A42F8343002885A
:10121000838842EA03432C4A4032847A02EBC402B8
:101220005360027B012A19D1274A0C3212680A4303
:10123000254B0C331A604288038842EA0343224A52
:101240004032847A42F83430C288838842EA0343C9
:101250001D4A4032847A02EBC4025360C27A3AB922
:10126000194A121D12688A43174B1B1D1A6006E0AB
:10127000154A121D12680A43134B1B1D1A6002897E
:1012800032B9114A143212688A430F4B14331A6070
:101290000289012A06D10C4A143212680A430A4B09
:1012A00014331A60427B012A06D1074A1C321268A5
:1012B0000A43054B1C331A60034A126822F00102EC
:1012C000014B1A6010BD0000006600401FB50020F1
:1012D0008DF80A008DF80B008DF80C00ADF80000B9
:1012E00040F26940ADF802000020ADF804004FF66E
:1012F000FF70ADF806000020ADF8080001208DF861
:101300000D006846FFF75EFF01220221014800F050
:1013100031F81FBD006400401CB50121022003F01C
:1013200069FF09220821124800F083FB09221146B7
:101330000F4800F07EFB4FF40070009002208DF803
:1013400004008DF8050000208DF8060001208DF8BE
:1013500007006946064800F024FB4FF480700090B7
:1013600002208DF804006946014800F01AFB1CBDFC
:10137000000402401AB143690B43436102E0436930
:101380008B434361704730B5024600200023146848
:1013900024F002041460146844F00104146000E0B6
:1013A0005B1C546804F001041CB94FF6FF74A3429F
:1013B000F6D1546804F001040CB900206CE08C797B
:1013C000012C04D1146844F08004146003E0146814
:1013D00024F080041460CC79012C04D1146844F00A
:1013E0004004146003E0146824F0400414600C7A94
:1013F000012C04D1146844F02004146003E0146844
:1014000024F0200414604C7A012C04D1146844F0B8
:101410001004146003E0146824F0100414608C7A43
:10142000012C04D1146844F00804146003E014682B
:1014300024F008041460CC7A012C04D1146844F020
:101440000404146003E0146824F0040414608C782D
:10145000A407CD7844EA05640D7944EA05444D7942
:1014600044EA05540D886D1E2C43D461146824F0A1
:1014700001041460002300E05B1C546804F00104C4
:101480001CB14FF6FF74A342F6D1546804F0010476
:101490000CB1002000E0012030BD00000EB501219C
:1014A000480603F0B7FE1448FFF770FE684600F0E8
:1014B000D3F800208DF8060001208DF807008DF884
:1014C000080000208DF809008DF80A008DF80B0047
:1014D0008DF8020001208DF8030004208DF804002F
:1014E00002208DF805000A20ADF800006946024888
:1014F000FFF749FF0EBD00000064004008B54FF43F
:10150000C06000F0F1FB14208DF8000000208DF881
:1015100001008DF8020001208DF80300684600F0FC
:10152000A7FB08BD10B500F5D87303EB01131B68CA
:1015300003F004031372137A53B900F5D87303EB65
:1015400001131B6840F2FF7404EA5353136009E06F
:1015500000F5D87303EB01131B686FF0604404EAD5
:10156000D303536000F5D87303EB01131B6803F03A
:101570000203537200F5D87303EB01135B6803F0A9
:101580000F03937200F5D87303EB01135B681B0A1A
:10159000D37400F5D87303EB01139B68D37200F585
:1015A000D87303EB01139B681C0A147300F5D873FE
:1015B00003EB01139B681C0C547300F5D87303EB09
:1015C00001139B681B0E937300F5D87303EB011393
:1015D000DB68D37300F5D87303EB0113DB681C0AD7
:1015E000147400F5D87303EB0113DB681C0C5474FE
:1015F00000F5D87303EB0113DB681B0E937421B95C
:10160000C36843F02003C36003E0036943F0200391
:10161000036110BD70B586B004460E4600250196E4
:1016200000208DF80C008DF80D0008208DF80E00BC
:1016300000BF06E014F8011B0DF10F004155681CB6
:10164000C5B2082DF6DB01A9024800F015F806B076
:1016500070BD00000064004000218171C171017201
:1016600041728172C1728170C170032101710221C6
:10167000417101210180704710B502460020936836
:1016800003F08063B3F1806F00D110E0936803F042
:101690000063B3F1006F01D1012008E0936803F00B
:1016A0008053B3F1805F01D1022000E004200428C0
:1016B00074D002F5C07303EB00131B6803F0010440
:1016C00002F5C07303EB00131C600B7A7BB94B7AF5
:1016D0000C8843EA445302F5C07404EB00142468F8
:1016E000234302F5C07404EB0014236010E00B7A6E
:1016F0004C6843EAC4034C7A234302F5C07404EBFC
:1017000000142468234302F5C07404EB0014236022
:101710008B7A03F00F038B7202F5C07303EB001397
:101720005B6823F00F0402F5C07303EB00135C60E9
:1017300002F5C07303EB00135B688C7A234302F558
:10174000C07404EB001463608B7B1C064B7B44EA83
:1017500003440B7B44EA0323CC7A234302F5C07491
:1017600004EB0014A3608B7C1C064B7C44EA03440E
:101770000B7C44EA0323CC7B234302F5C07404EBC7
:101780000014E36002F5C07303EB00131B6843F021
:10179000010402F5C07303EB00131C6010BD10B50B
:1017A00000F022F800F01AF810BD000010B5002477
:1017B00000BF00BFFEF72EFD044600BF00BF102192
:1017C000054800F0A9F900BF00BF2046FEF726FD3E
:1017D00000BF00BF10BD00006820002010B5FFF75B
:1017E000E5FF10BD00BFFEE710B50020024908600C
:1017F00000F00AF810BD0000580000200149086000
:10180000704700005800002010B5FFF74DFC04465B
:101810000848006840F080700649086000200649CA
:1018200048600846006840F0010008602046FFF765
:10183000E5FF10BDFCED00E0001000E00149486844
:1018400070470000001000E039B1084A1268012317
:1018500083401A43054B1A6006E0044A12680123CC
:1018600083409A43014B1A607047000000740040A7
:1018700041B1094A12684FF4805383401A43064B22
:101880001A6007E0044A12684FF4805383409A4379
:10189000014B1A60704700000074004030B5002210
:1018A00000230A4C226840F6FE748440A243D1E92A
:1018B00000452C438D682C43CD6844EA050303FAA8
:1018C00000F42243014C226030BD0000007400404F
:1018D0001CB501210C2003F08DFC4FF480700090AA
:1018E00001208DF8040000208DF806008DF8070017
:1018F0008DF8050069460C4800F053F8042000906C
:1019000069460A4800F04DF84FF48070009069462F
:10191000054800F046F84FF4007000906946024810
:1019200000F03FF81CBD000000080240000C02401F
:1019300021B1026842F00102026003E0026822F075
:10194000010202607047000010B500220268134BCC
:101950001A40CC680B6823434C6923438C692343AA
:10196000CC6923430C6A23434C6A23438C6A234388
:101970004C6B23438C6B23431A430260426922F071
:101980000702D1E90B3423431A4342610B694360D8
:101990004B6883608B68C36010BD00003F801CF003
:1019A0007047F0B50A4600210023002400BF3DE047
:1019B000012505FA01F3156805EA03049C4234D1B8
:1019C00005684F000326BE40B543056015794E00FB
:1019D000B5400668354305601579012D02D01579AB
:1019E000022D16D185684F000326BE40B5438560A1
:1019F00055794E00B54086683543856045680126B7
:101A00008E40B5434560456896798E40B6B2354301
:101A10004560C5684F000326BE40B543C560D57913
:101A20004E00B540C6683543C560491C1029BFD378
:101A3000F0BDF0B5002300244D07ED0E02FA05F3CA
:101A4000CE1000F1200555F826504E07F70E0F2650
:101A5000BE40B543CF1000F1200646F82750CE1007
:101A600000F1200555F8265045EA0304CE1000F198
:101A7000200545F82640F0BD41837047018370473B
:101A800000BFFEE71CB50121802003F0B3FB4FF43B
:101A90008060009001208DF8040000208DF8060081
:101AA00001208DF8070002208DF8050069460D48D9
:101AB000FFF777FF0121802003F09CFB4FF40060CB
:101AC000009069460748FFF76CFF0121802003F072
:101AD00091FB4FF48050009069460248FFF761FF88
:101AE0001CBD0000001C024010B5FFF7CBFF4FF4F7
:101AF00080610748FFF7C2FF4FF400610448FFF719
:101B0000BDFF4FF480510248FFF7B8FF10BD000041
:101B1000001C024000BFFEE730B505460C462246D9
:101B20000021284600F05EF830BD00003EB50020E0
:101B30000C4908600C4C02A801214FF44063224676
:101B4000CDE9001009490AA000F016F8BDF8080018
:101B500042F21071884203D000BFFFF743FE00BF7E
:101B60003EBD00005C00002078200020782C002082
:101B700048656170000000002DE9F84F05460E46EB
:101B800017461C46DDE90A894FF0000A00BF00BF76
:101B9000FEF740FB824600BF00BF43463A4631464F
:101BA0002846009400F00EF800BF00BF5046FEF734
:101BB00035FB00BF00BF42F21070A9F80000BDE87D
:101BC000F88F000030B5039C0A60651E15444D6017
:101BD0008A60034D2D68CD600B61014D296030BDD9
:101BE0005C0000202DE9F04105460B469446002795
:101BF000002402E03F021F43641C042CFAD3604619
:101C000005F00306294646B1344603E001F8013BDE
:101C1000401E641C08B1042CF8D30A4601E080C2BF
:101C2000001F0428FBD2114602E001F8013B401ED0
:101C30000028FAD1BDE8F08110B5FFF749FE03F0A6
:101C4000B1FA03F077FA10BD704708B54FF4C060E1
:101C500000F04AF826208DF8000001208DF80100E0
:101C60008DF802008DF80300684600F001F808BD09
:101C700070B5002100230F22C4781CB3174C2468D0
:101C800004F4E064C4F5E064C4F30721C1F1040482
:101C9000E3B20A4144789C40E1B284781440214385
:101CA0000C07210E0E4C05786155047804F01F05D1
:101CB0000124AC4005786D11AD0005F1E025C5F8B3
:101CC000004109E0047804F01F050124AC40054DF3
:101CD0000678761145F8264070BD00000CED00E056
:101CE00000E400E080E100E002490143024A1160A3
:101CF000704700000000FA050CED00E0704700009E
:101D000010B50348006810B101480068804710BD55
:101D10007400002070B5044600F0AEF80020414980
:101D200008704149087041490870414908604149BB
:101D300008604149087041490870414908704149AB
:101D4000086041490860414908604148006858B14D
:101D50004048056845B13E48066803E0761E00200D
:101D600028602D1D002EF9D100203B4908603B4919
:101D700008603B4908603B4908603B4908603B49B3
:101D800008603B4908603B49087001F0F9FF02F028
:101D900033F8204601F05AFC208800B170BD20467F
:101DA00001F0CEFC208800B1F8E7204601F0D4FC19
:101DB000208800B1F2E7204601F028FE208800B11B
:101DC000ECE7204602F00CF8208800B1E6E7204658
:101DD00002F0D2F8208800B1E0E7204602F078FB5C
:101DE000208800B1DAE7204601F05EFC208800B1CF
:101DF000D4E7204603F01CF8208800B1CEE7204647
:101E000002F03AFA208800B1C8E7204603F074F8DF
:101E1000208800B1C2E701F045FBFFF76FFF00BF6C
:101E2000BCE700008800002089000020BC000020E2
:101E30002401002028010020A2000020A30000208F
:101E4000A4000020B0000020B4000020B800002052
:101E50009C63000898630008680000206C00002064
:101E60007000002074000020780000207C0000201A
:101E700080000020EA000020064800680649096842
:101E800000EB8100054908600846006820F0070063
:101E900008607047986300089C6300082C010020CC
:101EA00008480078012800D0704707480078FA28D1
:101EB00000DBF9E704480078401C0349087000BFC4
:101EC000F2E70000890000208800002010B50024FF
:101ED0002D480078012800D010BD00BFFEF79AF908
:101EE000044600BF2948007828B900BF2046FEF705
:101EF00095F900BFF0E725480078401E2349087097
:101F000008460078002805DD00BF2046FEF786F968
:101F100000BFE1E71E480078002805DD00BF20462D
:101F2000FEF77CF900BFD7E701F016FF19490870EA
:101F30000846007800EB4000174951F82000174987
:101F400008600846006816490968884205D100BF44
:101F50002046FEF763F900BFBEE710480068D0F8DE
:101F60008C00401C0D490968C1F88C000D480068C0
:101F7000401C0C490860FEF778FC00BF2046FEF7C5
:101F80004DF900BF00BFA7E78900002088000020AE
:101F9000BC000020A3000020D83A00202801002027
:101FA00024010020E00000202DE9FF4F83B004460B
:101FB00015461F46DDE91096002000902DB945F228
:101FC000BB60308007B0BDE8F08F022F03DA45F226
:101FD000BC603080F6E7B9F1040F03D245F2C1606E
:101FE0003080EFE74FF0030ABAF1000F0DD005EA99
:101FF0000A0018B145F2BB603080E3E709EA0A0045
:1020000018B145F2C1603080DCE7AB46A846781EC7
:1020100080B201900020029007E0C844CBF8008015
:10202000C3460298401C80B20290DDE9011088424C
:10203000F3DB0020CBF8000000BF00BFFEF7EAF89A
:10204000009000BF00BF0E4820600498A06065604B
:10205000E560A7826782A4F81090204601F05CFB3F
:1020600008480088401C0749088000BF00BF00984E
:10207000FEF7D4F800BF00BF0020308000BFA1E70A
:102080004D454D20980000202DE9F04104460D46B5
:1020900000272CB945F2BF6028800020BDE8F08100
:1020A00000BF00BFFEF7B6F8074600BF00BFA08A1A
:1020B00058B900BF00BF3846FEF7B0F800BF00BFF8
:1020C00045F2C26028800020E8E7E6683068E060FA
:1020D000A08A401EA08200BF00BF3846FEF79EF8CF
:1020E00000BF00BF002028803046D7E72DE9F0412F
:1020F00004460E461546002724B945F6C3502880ED
:10210000BDE8F08100BF00BFFEF784F8074600BFBE
:1021100000BF10482060666000202062606284F882
:102120002800E06204F1080001F021FD204601F0E2
:10213000FDFB09480088401C0749088000BF00BF1C
:102140003846FEF76BF800BF00BF0020288000BFB4
:10215000D6E700004D555458A00000202DE9F04767
:1021600088B00546894617461C46109E4FF0000A67
:102170002DB945F6C350308008B0BDE8F0871FB1D7
:10218000B7F5004F02D100E000BF03E045F625603F
:102190003080F1E700BF62492868884203D045F6E5
:1021A000C4503080E8E70CB10020206000BF00BFC1
:1021B000FEF730F8824600BF00BF95F82800B8B996
:1021C000584800686862012085F828000CB1E86A68
:1021D000206029465348006801F0C0FB00BF00BFE3
:1021E0005046FEF71BF800BF00BF00203080C3E759
:1021F0004C49686A0968884212D195F82800401C49
:1022000085F828000CB1E86A206000BF00BF504686
:10221000FEF704F800BF00BF45F282703080ABE7E4
:1022200007F4004050B100BF00BF5046FDF7F6FF75
:1022300000BF00BF46F2B01030809DE73A480078FA
:1022400000280ADD00BF00BF5046FDF7E7FF00BFD2
:1022500000BF46F6635030808EE7D5F8248098F8AA
:1022600037003049096891F83710884206DD2D485B
:10227000006890F83710404602F07AF84B46042286
:102280002946684601F0CEFB00BF00BF5046FDF76F
:10229000C5FF00BF00BF00F00FF900BF00BFFDF792
:1022A000B9FF824600BF00BF1E48006890F83500A5
:1022B00030B101280CD002281AD0032821D110E017
:1022C0001CB118480068806C2060002030801CE041
:1022D0001CB114480068806C206046F2A910308060
:1022E00013E00CB10020206047F2D92030800CE0D0
:1022F0001CB10C480068806C206045F6C2503080EC
:1023000003E046F62E60308000BF00BF00BF00BF74
:102310005046FDF783FF00BF00BF00BF2CE7000061
:102320004D55545824010020BC0000202DE9F84FE1
:102330000446894615464FF0000B24B945F6C350B4
:102340002880BDE8F88FB9F1000F03D0B9F5004F30
:1023500002D100E000BF03E045F625602880F0E7E9
:1023600000BF52492068884203D045F6C4502880F7
:10237000E7E700BF00BFFDF74DFF834600BF00BF8A
:102380004B49606A096888420AD000BF00BF5846BE
:10239000FDF744FF00BF00BF45F281702880D0E701
:1023A000FFF74CFA80462834C4F804802078401E99
:1023B000207014F8280900280ADD00BF00BF584625
:1023C000FDF72CFF00BF00BF45F283702880B8E7FF
:1023D00021463748006801F00BFB04F1080ABAF8FF
:1023E000080068B90020606284F8280000BF00BFC0
:1023F0005846FDF713FF00BF00BF00202880A0E76C
:102400002B48006890F837002949096891F838107E
:10241000884228D02648006801F0D4FA06462448AD
:10242000006890F83810B14204DA2148006890F84A
:10243000380000E0304606461D48006890F8370036
:10244000B04210DA1A48006801F03CFD18480068F4
:1024500080F83760304601F09FFC1548006801F0B5
:1024600013FD14480670DAF80000876867620120DF
:1024700084F828002146384601F070FA00231A46F5
:1024800039462046CDF8008001F0E4FB00BF00BFD4
:102490005846FDF7C3FE00BF00BF09F4004008B96D
:1024A00000F00AF80020288000BF4AE74D55545834
:1024B00024010020A200002010B50024204800784C
:1024C000002800DD10BD1F480078002800DDF9E776
:1024D00000BFFDF79FFE044600BF01F03DFC1A4916
:1024E00008700846007800EB4000184951F82000B9
:1024F000174908600846006816490968884205D1EE
:1025000000BF2046FDF78AFE00BFDBE710480068E9
:10251000D0F88C00401C0E490968C1F88C000E48A8
:102520000068401C0C490860FEF79AF900BF20467D
:10253000FDF774FE00BFBFF36F8F00BFC2E700005E
:1025400088000020BC000020A3000020D83A002012
:102550002801002024010020E000002070B504467E
:10256000002514480078012803D045F689602080B2
:1025700070BD11480078FA2803DB45F2092020805D
:10258000F6E700BF00BFFDF745FE054600BF00BFF0
:1025900009480078401C0849087001F0C1FC00BFE0
:1025A00000BF2846FDF73AFE00BF00BF0020208094
:1025B00000BFDDE789000020BC00002070B50446A4
:1025C00000251C480078012803D045F6896020804A
:1025D00070BD1948007818B946F664502080F7E7B6
:1025E00000BF00BFFDF716FE054600BF00BF124842
:1025F0000078401E104908700846007800280ADD5F
:1026000000BF00BF2846FDF709FE00BF00BF46F629
:1026100063502080DCE701F091FC00BF00BF28463A
:10262000FDF7FCFD00BF00BFFFF746FF0020208044
:1026300000BFCDE789000020BC00002010B5044693
:1026400012480078E8B901F087FB11490870084684
:102650000078104908700E48007800EB40000E49E1
:1026600051F820000D490860084600680C490860D0
:10267000012006490870FEF7BBF843F69920208038
:1026800002E045F68A60208010BD0000890000202D
:10269000A3000020A2000020D83A0020280100203A
:1026A000240100202DE9F04107464FF0000800BF4B
:1026B00000BFFDF7AFFD804600BF00BF00203B49D3
:1026C00008803B4908603B4908603B4908603B493A
:1026D00008603B49088100BF00BF4046FDF79EFDF2
:1026E00000BF00BF00BF00BFFDF794FD804600BFE4
:1026F00000BF3448046800BF00BF4046FDF78EFDB0
:1027000000BF00BF21E000BF00BFFDF783FD804692
:1027100000BF00BF00207434E06320602063A0612C
:10272000A082E0826062A062FFF788F82062743CB9
:1027300004F160060020B081D4F8B84000BF00BFAB
:102740004046FDF76BFD00BF00BF002CDBD100BF92
:1027500000BFFDF75FFD804600BF00BF1A48056857
:1027600000BF00BF4046FDF759FD00BF00BF12E0AB
:1027700000BF00BFFDF74EFD804600BF00BF05F162
:1027800020060020B081AD6900BF00BF4046FDF7C4
:1027900045FD00BF00BF002DEAD102F03FFA02F074
:1027A00051FC00203880BDE8F0810000CA00002004
:1027B000DC000020F000002014010020B400002004
:1027C000CC3A0020E4000020A8000020F8B5044620
:1027D00000266946324800F045FDBDF8000018B1FA
:1027E000BDF800002080F8BD6A460021022000F0FC
:1027F000A7FDBDF8000018B1BDF800002080F2E789
:1028000000BF00BFFDF706FD064600BF00BF002069
:102810002449086000BF00BF3046FDF7FFFC00BF41
:1028200000BF00252048006820490968884205D972
:102830001D4800681D490968B0FBF1F525B91A4823
:1028400000680A21B0FBF1F56A460021284600F035
:1028500077FD6946124800F009FABDF8000018B18A
:10286000BDF800002080BEE700BF00BFFDF7D2FC2E
:10287000064600BF00BF00200D49086009480068F7
:102880000C49086001200C49087000BF00BF3046A9
:10289000FDF7C4FC00BF00BF0020208000BFA2E7FE
:1028A000883F0020CC000020CC630008B4630008FF
:1028B000DC000020D0000020D800002010B5034824
:1028C000006810B101480068804710BD7800002002
:1028D0002DE9FF4F87B004469046DDE91BA5DDE9F1
:1028E0001496179F002003902CB947F2AD10288052
:1028F0000BB0BDE8F08FB8F1000F03D147F24F10D5
:102900002880F5E71EB946F62F602880F0E750488A
:102910000068874203D246F630602880E8E71698C0
:10292000B84203D346F631602880E1E7B9F1400FA1
:1029300003D346F273202880DAE7B9F13F0F06D1BE
:102940004448844203D046F273202880D0E72046D2
:1029500001F0CEFD002028800AF0010090B10AF0BD
:10296000020078B105960020069008E00021059845
:1029700001600598001D05900698401C0690069879
:10298000B842F3D3169806EB80000490CDE9007AA4
:1029900032464046049B0A9900F002FB0590C4F8B9
:1029A00028800A98E0620898206284F8379084F8BA
:1029B0003890059820600498A0601A98606066625C
:1029C0002764A4F844A04FF0000B08E0002104F1B4
:1029D000780040F82B100BF1010000F0FF0BBBF169
:1029E000000FF3D004F16000189900F015FF2046A5
:1029F00000F036F800BF00BFFDF70CFC039000BFED
:102A000000BF94F8370001F0C7F9204601F03CFA06
:102A1000204601F023FD10480088401C0E49088024
:102A20000E480078012807D000BF00BF0398FDF7CB
:102A3000F5FB00BF00BF5BE700BF00BF0398FDF7D9
:102A4000EDFB00BF00BFFFF737FD00BF50E7000000
:102A5000C86300080C3A0020E8000020890000202C
:102A600010B504460348006818B1204601490968BA
:102A7000884710BD680000202DE9F04104460E464D
:102A80004FF000085B48844204D147F24C1030807C
:102A9000BDE8F0817CB900BF00BFFDF7BBFB8046FD
:102AA00000BF00BF5448046800BF00BF4046FDF7A8
:102AB000B5FB00BF00BF00BF00BFFDF7ABFB80460A
:102AC00000BF00BF94F83600082860D2DFE800F0AD
:102AD00004090E10080A0F11204601F0F3F961E015
:102AE00060E000BF204602F06DF85BE000BF00BF71
:102AF00000BF94F8340008283BD2DFE800F0040758
:102B000005080E090A0600BF00BF33E000BF00BF82
:102B100000BF204601F063F82CE0206BC068456AD6
:102B200015F8377F204601F05AF828786978373D44
:102B3000884212D095F8370094F8371088420CD1AB
:102B4000284600F03FFF074695F83800B84202DA01
:102B500095F8380000E038460746002084F8340035
:102B600095F83700B84203D03946284601F000FCFA
:102B700000E000BF00BF94F83600032803D094F8AB
:102B80003600072802D1204602F01CF80AE000BFF8
:102B900000BF4046FDF742FB00BF00BF46F62D6078
:102BA000308075E700BFE06B10B1204600F0DAFE20
:102BB00004F1600000F00EFE204600F021F82046EF
:102BC00001F064FC0D480088401E0C490880204636
:102BD00001F08EFCFF2084F8360000BF00BF4046A5
:102BE000FDF71CFB00BF00BF00203080FFF764FC36
:102BF00000BF4DE70C3A002024010020E80000202F
:102C000010B504460348006818B120460149096818
:102C1000884710BD6C0000202DE9FC470746884618
:102C200091461C460A9D4CB1102C08D0B4F5004FBB
:102C300006D0A4F50040103820B902E000BF00BF64
:102C400000BF04E045F625602880BDE8FC8700BF92
:102C5000FEF7F4FD064623464A4641463846CDE98E
:102C6000006501F0A3FC00BFEFE7000070B504466B
:102C70000D46002600BF00BFFDF7CCFA064600BF98
:102C800000BF1CB10D48006884420AD100BF00BFDC
:102C90003046FDF7C3FA00BF00BF47F25710288047
:102CA00070BD00BF00BF3046FDF7B8FA00BF00BFDF
:102CB0002946204601F0EAFC00BFF1E7240100208C
:102CC00010B504460348006818B120460149096858
:102CD000884710BD700000202DE9F04780460E4661
:102CE00014461D464FF000091EB1B6F5004F02D143
:102CF00000E000BF05E045F6256028800020BDE823
:102D0000F08700BF0CB10020206000BF00BFFDF7BE
:102D100081FA814600BF00BF5F480068C06CA8B35D
:102D20005D480068C06C401E5B490968C8645A4829
:102D30000068C76C1CB158480068806C2060FEF7C2
:102D40007DFD55490968896C401A53490968C1F8E5
:102D5000A00051480068D0F8A4004F490968D1F894
:102D6000A010884207D24C480068D0F8A0004A4919
:102D70000968C1F8A40000BF00BF4846FDF74EFA3D
:102D800000BF00BF002028803846B8E7FFE706F400
:102D9000004058B100BF00BF4846FDF73FFA00BFF2
:102DA00000BF46F2B01028800020A8E73B4800781A
:102DB00000280BDD00BF00BF4846FDF72FFA00BF1B
:102DC00000BF46F663502880002098E7434607225C
:102DD0000021084600F026FE00BF00BF4846FDF770
:102DE0001DFA00BF00BFFFF767FB00BF00BFFDF784
:102DF00011FA814600BF00BF2748006890F83500EF
:102E000020B1012826D0032834D12CE0FCB122487F
:102E10000068806C2060FEF711FD1F490968896C0D
:102E2000401A1D490968C1F8A0001B480068D0F885
:102E3000A40019490968D1F8A010884207D21648A1
:102E40000068D0F8A00014490968C1F8A400002067
:102E5000288013E01CB110480068806C206046F2A6
:102E6000A91028800AE00CB10020206047F2D92088
:102E7000288003E046F62E60288000BF00BF064889
:102E80000068C76C00BF00BF4846FDF7C7F900BF28
:102E900000BF384633E7000024010020BC000020BA
:102EA0002DE9F04106460D4614461DB1B5F5004F1B
:102EB00002D100E000BF05E045F62560208000203B
:102EC000BDE8F08100BFFEF7B9FC804623464246CC
:102ED0002946304601F066FC07463846F0E7000018
:102EE0002DE9F04704460E4617461D464FF0000AEE
:102EF00026B946F2D5202880BDE8F0871FB946F2F2
:102F0000D5202880F8E700BF00BFFDF783F982468F
:102F100000BF00BF0CB921480468206868B900BF31
:102F200000BF5046FDF77AF900BF00BF00203060B7
:102F3000386047F252102880DEE794F8440000F031
:102F4000010068B900BF00BF5046FDF767F900BF38
:102F500000BF00203060386047F254102880CBE773
:102F600000BF00BF5046FDF759F900BF00BF4FF04A
:102F70000008D4F8249003E009F1040908F10108DD
:102F8000D9F800000028F7D0C6F80080206CA0EB2C
:102F9000080038600020288000BFADE72401002031
:102FA000F0B50446DDE9055602EB850020F0070088
:102FB0004FF0807C071F3846C7F800C0071F38460F
:102FC0003C60DFF834C2071F3846C7F800C04FF036
:102FD000123C071F3846C7F800C04FF0033C071FDC
:102FE0003846C7F800C04FF0023C071F3846C7F804
:102FF00000C0071F38463B60071F384639604FF056
:10300000113C071F3846C7F800C04FF0103C071F9F
:103010003846C7F800C04FF0093C071F3846C7F8CC
:1030200000C04FF0083C071F3846C7F800C04FF0FB
:10303000073C071F3846C7F800C04FF0063C071F83
:103040003846C7F800C04FF0053C071F3846C7F8A0
:1030500000C04FF0043C071F3846C7F800C006F018
:103060000407002F7ED04FF0007C071F3846C7F8BA
:1030700000C0DFF888C1071F3846C7F800C0DFF876
:1030800080C1071F3846C7F800C0DFF878C1071FA6
:103090003846C7F800C0DFF870C1071F3846C7F8C8
:1030A00000C0DFF868C1071F3846C7F800C0DFF866
:1030B00060C1071F3846C7F800C0DFF858C1071FB6
:1030C0003846C7F800C0DFF850C1071F3846C7F8B8
:1030D00000C0DFF848C1071F3846C7F800C0DFF856
:1030E00040C1071F3846C7F800C0DFF838C1071FC6
:1030F0003846C7F800C0DFF830C1071F3846C7F8A8
:1031000000C0DFF828C1071F3846C7F800C0DFF845
:1031100020C1071F3846C7F800C0DFF818C1071FD5
:103120003846C7F800C04FF0834C071F3846C7F831
:1031300000C0DFF804C1071F3846C7F800C0DFF839
:10314000FCC0071F3846C7F800C0DFF8F4C0071FEF
:103150003846C7F800C0DFF8ECC0071F3846C7F88C
:1031600000C000E047E0DFF8E0C0071F3846C7F8BE
:1031700000C0DFF8D8C0071F3846C7F800C0DFF826
:10318000D0C0071F3846C7F800C04FF0824C071F59
:103190003846C7F800C0DFF8BCC0071F3846C7F87C
:1031A00000C0DFF8B4C0071F3846C7F800C0DFF81A
:1031B000ACC0071F3846C7F800C04FF0814C071F4E
:1031C0003846C7F800C0DFF898C0071F3846C7F870
:1031D00000C04FF0804C071F3846C7F800C04FF0C2
:1031E0007E5C071F3846C7F800C04FF0000C071F71
:1031F0003846C7F800C0F0BD8D4700080000F84110
:103200000000F0410000E8410000E0410000D8412A
:103210000000D0410000C8410000C0410000B8419A
:103220000000B0410000A8410000A041000098410A
:1032300000009041000088410000704100006041A2
:10324000000050410000404100003041000020419A
:10325000000010410000E0400000C0400000A0401D
:103260000000404070B505460C460648854203D133
:1032700047F25B10208070BD2146284601F074FBA8
:1032800000BFF8E70C3A002010B52948006890F814
:10329000440000F0040020B1254909680868FDF7E2
:1032A00091FA2448006890F8440000F0040020B12E
:1032B000204909680868FDF792FA1F48006810B1B4
:1032C0001D4800688047FEF7B9FA044618480068B0
:1032D00018490968884215D015480068D0F894004C
:1032E000201A13490968C1F8900011480068D0F805
:1032F00098000F490968D1F8901008440C490968F2
:10330000C1F898000B480068C0F89440084800686D
:10331000D0F8B00009490968884205D2074800681A
:1033200003490968C1F8B00000200449086010BDD5
:1033300024010020280100207C000020B80000208B
:103340002DE9F04105460E46144600272348007833
:10335000002804DD46F663502080BDE8F08136B1D8
:10336000022E05D0042E0AD0082E09D101E000BF9C
:1033700000BF1DB947F27E202080EEE704E003E0A5
:1033800045F625602080E8E700BF00BF00BFFCF7DE
:1033900041FF074600BF00BF23463246294610487A
:1033A000006801F0B1FB208838B100BF00BF38468B
:1033B000FCF734FF00BF00BFCFE70948006800F00A
:1033C00081FD00BF00BF3846FCF728FF00BF00BFEB
:1033D000FFF772F80020208000BFBEE7BC0000208D
:1033E0002401002008B500F01FF86A4600210A48B1
:1033F000FFF756FD09480068401E08490860084666
:10340000006838B90648006808606A460021054827
:10341000FFF746FD08BD0000983E00202001002077
:103420001C010020883F002010B50348006810B13F
:1034300001480068804710BD8000002010B50024BE
:1034400000BF00BFFCF7E6FE044600BF00BF08480F
:103450000078401C0649087000BF00BF2046FCF7FA
:10346000DDFE00BF00BFFFF7BDFFFEF72FFD10BD63
:103470008800002001464A1E4FF0E0235A61084AA6
:10348000106820F07F4000BF10601A46126942F0B9
:1034900005021A611A46126942F002021A61704767
:1034A00020ED00E0244A2549254A264A2649274A94
:1034B0002748284A284A294A294A2A482A482B4A7A
:1034C0002B482C4A2C482D4A2D482E482E482F4850
:1034D0002F4A304A304A3148314A324A324833481A
:1034E00033483448344835483548364A364A374AEE
:1034F000374A384838483948394A3A4A3A4A3B48BC
:103500003B483C483C493D483D4A3E4A3E4A3F4A8A
:103510003F4A404A404A4148414A424A4248434859
:10352000434A444A4448454A454A4648464800BFFB
:1035300000BF00BF70470000006400086865000815
:1035400001640008026400080464000808640008BC
:103550000C6400080964000834640008356400083D
:1035600036640008386400083A6400083E640008C5
:103570004064000860640008626400086464000835
:1035800066640008686400086A6400086C640008E7
:103590009C6400089D6400089E640008A064000804
:1035A000A2640008A3640008A4640008A6640008DC
:1035B000A8640008AA640008AC640008AE640008AF
:1035C000B0640008E0640008E1640008E2640008F8
:1035D000E3640008E4640008E6640008E8640008A6
:1035E00010650008116500081265000813650008E1
:1035F0001465000816650008186500081C650008B9
:103600001D6500081E6500081F650008206500088C
:10361000216500082265000823650008246500086C
:103620002665000827650008286500082A65000847
:103630002C6500082D6500083065000860650008ED
:103640006165000862650008646500080021034A9E
:103650001160034A11800180704700008C00002037
:1036600090000020002419E000BF00BFFCF7D2FD4D
:10367000044600BF00BF0A480068401C08490860B3
:1036800008480068401C0749086000BF00BF20468A
:10369000FCF7C4FD00BF00BFFEF732FBE4E700000B
:1036A00084000020CC00002010B58AB00446002021
:1036B0000E4908600B2000210591CDE90704069111
:1036C00008460B4909680B4A12680B4B1B68CDE989
:1036D0000132CDE903103F200023084A08A10090E1
:1036E0000C48FFF7F5F80AB010BD00008400002078
:1036F00074630008706300086C6300086536000896
:1037000075432F4F532D4949492049646C65205416
:1037100061736B000C3A0020002181610749096840
:1037200011B90021C16105E004490968C16103497B
:103730000968886101490860704700009400002012
:103740000021034A1160034A118001807047000084
:10375000940000209800002070B501461A4D2D6895
:103760001DB945F21E750D8070BD184D2D881DB90F
:1037700045F21D750D80F7E7134D28682A68103251
:10378000124D2D886D1EACB2002308E002600025AA
:1037900045600581C560103010325D1CABB2A3429C
:1037A000F4DB0025056045600581C560064D2D6888
:1037B000074E3560054D2D88B5800025F580358193
:1037C0000D8000BFD0E70000AC630008A4630008D0
:1037D000CC3A002010B5014648894B89002B17DDF3
:1037E0000A680C4B1B6813600A4C4B682360234625
:1037F000DB884C891B1B074CE38023469B884C8944
:103800002344044CA38000234B818B810B604B60CD
:1038100010BD0000CC3A002001810022428182814B
:1038200002604260704700002DE9F0410D46DDE97D
:103830000674B0F80AC0B0F80880C44505DB46F24B
:10384000935CA4F800C0BDE8F081DFF8DCC0BCF8F0
:1038500004C0BCF1000F04D145F21D7CA4F800C0E7
:10386000F1E7DFF8C4C0DCF80010DFF8BC80D1F865
:1038700000C0C8F800C0C446BCF804C0ACF1010CDC
:10388000A8F804C0C446BCF806C00CF1010CA8F8A6
:1038900006C0C446BCF808C0B8F80680C44507DABC
:1038A000DFF884C0BCF806C0DFF87C80A8F808C048
:1038B000B0F80AC0BCF1000F0AD1016041604FF0BE
:1038C000010CA0F80AC04FF0000CC1F800C017E0CE
:1038D00003F0100CBCF1000F07D1066831600160E5
:1038E0004FF0000CC1F800C004E0D0F804C0C1F8EB
:1038F00000C04160B0F80AC00CF1010CA0F80AC089
:10390000B0F80CC0B0F80A80C44503DAB0F80AC0B9
:10391000A0F80CC04D600A81CF604FF0000CA4F8F5
:1039200000C000BF8FE70000CC3A002009A1C161B0
:10393000002141610849096811B90021816105E050
:1039400005490968816104490968486102490860BC
:1039500070470000200000009C000020C26B0A623B
:10396000C16370472DE9F8430546EC6B26E0D4F8B7
:103970002090FDF763FF0646E6622146284600F0E8
:1039800037F804F10808B8F8080020B9002084F8D6
:103990002800606211E0D8F80000876865620120A5
:1039A00084F8280021463846FFF7D8FF00231A463E
:1039B00039462046009600F04DF94C46002CD6D1F1
:1039C000BDE8F88330B504463F2004F13C010BE02C
:1039D0000D68AB682BB19D6895F83720824200DAFC
:1039E00010460D6805F120010D68002DF0D130BDA5
:1039F000024602F13C0002E0036803F12000036884
:103A00008B42F9D103681B6A036070470021034AA7
:103A10001160034A11800180704700009C00002063
:103A2000A00000202DE9F04105460C4616461F4631
:103A30001548006880F8346000201349096881F84F
:103A4000350039461048006800F07CFC6CB104F188
:103A50000808EC60012229460B48006800F016F8BF
:103A60002946404600F088F807E00020064909682A
:103A7000A1F8460004490968086303480168204624
:103A800000F018F8BDE8F0812401002010B5A0F87E
:103A90004620016300230AE000244C600C600C61A6
:103AA0004C610C83CC61886020315C1CA3B29342D2
:103AB000F2DB10BD30B548B14568C1F8BC5000F12B
:103AC0000804226893681D6AC56113E091F83450B8
:103AD000022D02D0072D08D103E007A5C1F8BC5084
:103AE00007E007A5C1F8BC5003E008A5C1F8BC5029
:103AF00000BF00BF30BD00005461736B2051000057
:103B00005461736B2053656D0000000020000000BD
:103B100030B507A5C1F8BC5000F1080422681AB1FD
:103B200093681D6AC56101E001A5C56130BD000053
:103B3000200000002DE9F0410446256BB4F84670E2
:103B400011E0D5F80C8008F108063089012807D962
:103B50002946304600F05DF82946304600F00CF862
:103B60002035781E87B2002FEBD1BDE8F08100210F
:103B70000160416001817047F0B58E6896F837505A
:103B800007893FB90127078100274F600F60016057
:103B9000416023E007897F1C0781026806E0946882
:103BA00094F83770AF4200DD02E05268002AF6D187
:103BB00000BF32B900274F6043680B605960416015
:103BC0000CE017682FB9116000270F604A60016090
:103BD00004E013680B604A6059601160F0BD2DE984
:103BE000F0410446256BB4F846600AE0D5F80C8035
:103BF00008F108072946384600F00BF82035701EFA
:103C000086B2002EF2DC0020A4F846002063BDE856
:103C1000F08110B50489012C03D1002404604460B4
:103C200011E00C6824B94A680024146002600AE0BC
:103C30004C6824B90B6800245C60436003E00B68A7
:103C40004A685A6013600489641E048100244C6031
:103C50000C6010BD2DE9F84306460C461746984601
:103C6000089D94F8360008285BD2DFE800F00405D0
:103C700008090607323300BF00BF00BF52E000BF93
:103C800094F83400032807D143463A46214630468B
:103C9000009500F04AF803E0A765A4F85C80A564ED
:103CA00036B12046FFF79BFF21463046FFF730FF35
:103CB00094F83600032802D1204600F083FF204606
:103CC00000F0ACF800203434A070607004F83409BF
:103CD00028E000BF94F83400032807D143463A4651
:103CE00021463046009500F020F803E0A765A4F8CF
:103CF0005C80A56436B12046FFF771FF214630464F
:103D0000FFF706FF94F83600072802D1204600F09E
:103D100059FF04203434A0700020607004F8340986
:103D200000E000BF00BFBDE8F883F0B50446059E83
:103D3000086BB1F846500AE0C768A74204D1046195
:103D400042610383C66104E020306F1EBDB2002DC6
:103D5000F2DC00BFF0BD000070B50025074C03E0A9
:103D600005F12000C5B2241D20680028F8D0206885
:103D7000FCF75BFA2844C5B2284670BD60000020FD
:103D8000002004E00021034A42F82010401C0228D1
:103D9000F8D370476000002030B5420900F01F03DF
:103DA0000121C3F11F04A140034C54F822400C43ED
:103DB000014D45F8224030BD6000002030B5420979
:103DC00000F01F030121C3F11F04A140034C54F86C
:103DD00022408C43014D45F8224030BD6000002058
:103DE0000021034A1160034A1180018070470000DE
:103DF000A8000020AC00002000210AE001EB4102F5
:103E0000054B03EB820000220281026042604A1CE3
:103E1000D1B24029F2D37047D83A002010B50446F9
:103E200094F83700FFF7B8FF94F837000549097890
:103E3000884203D1204600F027F802E0204600F037
:103E400003F810BDA200002010B590F8373003EB46
:103E500043030C4C04EB83010B893BB901230B8119
:103E60000023C36003610860486009E00B895B1CA4
:103E70000B810B68C360002303610A68106108604E
:103E800010BD0000D83A002010B590F8373003EB91
:103E900043030B4C04EB83010B893BB901230B81DA
:103EA0000023C36003610860486008E00B895B1C65
:103EB0000B810023C3604A680261D060486010BD76
:103EC000D83A00202DE9F041054695F8370000EB7F
:103ED0004000124901EB80042F69EE6887B946B9AA
:103EE000002020812060606095F83700FFF766FFB2
:103EF0000EE02089401E208100203061266007E00E
:103F00002089401E2081FE600EB9676000E03761A5
:103F100000202861E860BDE8F0810000D83A002068
:103F200010B504480078012803D1FDF787FC024949
:103F3000086010BDBC000020B000002010B50A4889
:103F4000007880B9FDF77AFC08490968441A0848E6
:103F50000068A04201D20648046006480068A042FA
:103F600001D20448046010BDBC000020B000002055
:103F7000B4000020B80000200021034A1160034A69
:103F80001180018070470000C0000020C4000020A4
:103F900086B00020009006E0A8490968480001AA00
:103FA0000021FFF7CDF9A64800780128F4D101A837
:103FB000FEF778FB0027A3480068A04909688842FB
:103FC00005D9A04800689D490968B0FBF1F727B9F9
:103FD0009C4800680A21B0FBF1F72EE1FDF72EFCAA
:103FE000804600BF00BFFCF715F9009000BF00BF7E
:103FF000954800689549086000209349086000BF13
:1040000000BF0098FCF70AF900BF00BF90480068A5
:104010008E490968884248D98D4800688D49884290
:1040200005D242F2107003900120029023E08848EC
:1040300000688949884205D24FF47A7003900A20BB
:10404000029018E0824800688449884203D26420C4
:10405000039002900FE07E4800688149884205D2B3
:104060000A2003904FF47A70029004E0012003903C
:1040700042F210700290764801680298B1FBF0FAA3
:104080007249039809684843B0FBFAF042F2107194
:10409000081A74490880744800880988884208DA38
:1040A000704800887049088003E042F210706D4942
:1040B0000880FEF703FC002500BF00BFFCF7AAF84C
:1040C000009000BF00BF6948046800BF00BF0098AF
:1040D000FCF7A4F800BF00BF26E000BF00BFFCF75C
:1040E00099F8009000BF00BF54F8980F606000205E
:1040F00044F8980900BF00BF0098FCF78FF800BF94
:1041000000BFD4F89C00054400BF00BFFCF782F854
:10411000009000BF00BFD4F8B84000BF00BF0098B7
:10412000FCF77CF800BF00BF002CD6D145B349484E
:10413000854205D242F2107005904FF0010B1BE052
:104140004548854205D24FF47A7005904FF00A0B2E
:1041500012E04248854203D26420059083460BE07A
:104160003F48854204D20A2005904FF47A7B03E051
:104170000120059042F2107BB5FBFBF0049003E0B8
:10418000002005900120049000BF00BFFCF742F81A
:10419000009000BF00BF3548046800BF00BF009812
:1041A000FCF73CF800BF00BF2BE0D4F89C00059959
:1041B00048430499B0FBF1F086B242F21070864297
:1041C00000D90646A4F88860B4F88A00B04201DA43
:1041D000A4F88A6001AB04F1A802111D2046FEF785
:1041E0007FFE00BF00BFFCF715F8009000BF00BFC6
:1041F000D4F8B84000BF00BF0098FCF70FF800BF2C
:1042000000BF002CD1D11A480078012805D1002028
:104210001749087001A8FEF745FAFDF70FFBA0EB60
:10422000080914480068484502D21248C0F80090B6
:1042300001AA00213846FFF783F8CFE6B4630008EF
:10424000D8000020CC630008CC000020D40000205F
:10425000D0000020801A060000093D00005A6202CA
:104260000084D717C8000020CA000020E400002006
:10427000C6000020DC00002010B58AB004460020F3
:104280001F4908601F4908601F4908601F490870DE
:104290001F4908701F48006820B946F62B6020802F
:1042A0000AB010BD1C4800681C490968884203D246
:1042B00046F62C602080F3E7194800783F2803D3A6
:1042C00046F62A602080EBE7032000210591CDE926
:1042D00007040691084610490968124A12680D4BF6
:1042E0001B68CDE90132CDE903100D4800780023A9
:1042F0000D4A0EA100901248FEF7EAFA00BFCFE780
:10430000CC000020D4000020D0000020D8000020E5
:10431000C6000020B8630008C0630008C863000836
:10432000B0630008BC630008913F000875432F4F3D
:10433000532D4949492053746174205461736B00B3
:10434000D83D002070B504460D4645B12A462146A9
:10435000064800F095FB032084F8360002E00220B6
:1043600084F836002046FFF7ADFD70BDFC0000204C
:104370002DE9F04104460D4600BF002694F8377041
:1043800094F8360008285FD2DFE800F004191E1FF9
:104390001A1B20212046FFF795FD84F8375094F82A
:1043A0003700FFF7F9FC2C480068844203D120460F
:1043B000FFF74AFD02E02046FFF766FD46E000BF3A
:1043C00000BF84F8375041E000BF00BF00BF84F851
:1043D000375094F83400082831D2DFE800F0300478
:1043E00031050B06073200BF00BF00BF2046FFF7B4
:1043F000A1FB27E02046FFF79DFB206BC068466AC3
:10440000AF4205DD96F83700A84217DC002615E01C
:1044100096F83700B84211D13046FFF7D3FA054677
:1044200096F83800A84202DA96F8380000E02846EC
:10443000054696F83700A84200D1002602E000BFEA
:1044400000BF00BF00BF01E0BDE8F08100BF3446FF
:10445000002C92D100BFF7E7240100200021C0F812
:10446000B4100949096819B90021C0F8B81007E06B
:1044700005490968C0F8B81003490968C1F8B400D3
:104480000149086070470000E4000020D0F8B42023
:10449000D0F8B8104AB90D4B196011B10023C1F81A
:1044A000B4300023C0F8B8300FE029B90023C2F8B7
:1044B000B830C0F8B43008E0C2F8B810C1F8B42081
:1044C0000023C0F8B830C0F8B4307047E4000020D2
:1044D0000021044A1160044A1180044A11600180DD
:1044E00070470000E4000020E8000020E000002009
:1044F00070B5044600202060A0606060E06020612C
:104500006061A061E06126A0206200206062A0627C
:10451000E062A064A065A4F85C00002104F16000E2
:10452000FFF77AF9002020676067E067A4F884004D
:10453000C4F88000002506E0002104F1780040F86E
:104540002510681CC5B2002DF6D000203434A061BF
:10455000E0662067E06084F85200A0676067208210
:10456000E0612062A4F85400A4F85600A065E0655C
:10457000FDF764F90646266600206066E067207055
:104580006070A0704020E07020710020A060C4F82E
:104590008000C4F8840004A0C4F88800343C70BDD6
:1045A0003F5461736B000000200000002DE9FC47C0
:1045B00004460F4690469946DDE90A654FF0000A29
:1045C0000020288000BF00BFFBF724FE824600BF0A
:1045D00000BF0CB92C48046894F83600082845D26E
:1045E000DFE800F00405181906071A1B00BF00BF1A
:1045F00000BF4B464246394604F16000CDE90065F4
:10460000FFF712F900BF00BF5046FBF707FE00BFDF
:1046100000BF36E000BF00BF00BF94F8340002289E
:1046200013D143463A46214600200096FFF712FB7D
:1046300000BF00BF5046FBF7F1FD00BF00BF09F40B
:10464000004090B9FDF738FF0FE04B46424639462F
:1046500004F16000CDE90065FFF7E6F800BF00BF98
:104660005046FBF7DBFD00BF00BF0AE000BF00BF04
:104670005046FBF7D3FD00BF00BF46F62D602880F3
:1046800000BF00BFBDE8FC872401002070B50446D0
:104690000D46002600BF00BFFBF7BCFD064600BF6D
:1046A00000BF0020288094F8360008285ED2DFE89A
:1046B00000F0040506071227394B00BF00BF00BFFA
:1046C00000BF00BF3046FBF7A9FD00BF00BF47F2A7
:1046D0005310288055E014F8860F401E207014F8FF
:1046E000860928B9002084F836002046FFF796FB9B
:1046F00000BF00BF3046FBF791FD00BF00BF40E0A8
:1047000014F8860F401E207014F8860910B9012095
:1047100084F8360000BF00BF3046FBF77FFD00BFC6
:1047200000BF2EE014F8860F401E207014F8860992
:1047300010B9022084F8360000BF00BF3046FBF7F6
:104740006DFD00BF00BF1CE014F8860F401E2070F6
:1047500014F8860910B9032084F8360000BF00BFA2
:104760003046FBF75BFD00BF00BF0AE000BF00BFA3
:104770003046FBF753FD00BF00BF46F62D60288092
:1047800070BD00BFFDF798FE00BFF9E708B504480B
:104790000068FEF795FA69460020FEF76DF908BD3E
:1047A000240100202DE9F8430446884617461D469B
:1047B0004FF0000900BF00BFFBF72CFD814600BF92
:1047C00000BF0CB967480468A7640020288094F8EB
:1047D0003600082876D2DFE800F0040550510607BD
:1047E000525300BF00BF00BF0420012804D002289C
:1047F00013D0042833D122E0E06CFF280CD100BF95
:1048000000BF4846FBF70AFD00BF00BF46F6C55093
:1048100028800020BDE8F88322E04FF6FF71E06CAD
:1048200088420BD100BF00BF4846FBF7F7FC00BF32
:1048300000BF46F6C55028800020EBE710E0E06C92
:10484000401C58B900BF00BF4846FBF7E7FC00BF5B
:1048500000BF46F6C55028800020DBE700E000BF1F
:1048600000BFE06C401CE064E66C00BF00BF48463F
:10487000FBF7D4FC00BF00BF71E000BF00BF00BF6A
:1048800094F83400072815D100231A46214618460B
:104890000097FFF7DFF9E66C00BF00BF4846FBF763
:1048A000BDFC00BF00BF08F4004000284AD1FDF75E
:1048B00003FE47E00420012805D0022813D0042875
:1048C00033D122E03FE0E06CFF280BD100BF00BFF6
:1048D0004846FBF7A3FC00BF00BF46F6C550288042
:1048E000002097E722E04FF6FF71E06C88420BD181
:1048F00000BF00BF4846FBF791FC00BF00BF46F673
:10490000C5502880002085E710E0E06C401C58B9B5
:1049100000BF00BF4846FBF781FC00BF00BF46F662
:10492000C5502880002075E700E000BF00BFE06CA4
:10493000401CE064E66C00BF00BF4846FBF76EFC1D
:1049400000BF00BF0BE000BF00BF4846FBF766FC9E
:1049500000BF00BF46F62D602880002600BF00BFC4
:10496000304657E72401002070B504460D46002666
:1049700000BF00BFFBF74EFC064600BF00BF0CB9EE
:104980003D4804683C48006884420ED13B480078AA
:1049900000280ADD00BF00BF3046FBF73FFC00BF28
:1049A00000BF46F66350288070BD0020288094F830
:1049B0003600082850D2DFE800F0041523313F40CC
:1049C0004142042084F83600012084F88600204605
:1049D000FFF778FA00BF00BF3046FBF71FFC00BFAF
:1049E00000BF44E0052084F83600012084F88600EA
:1049F00000BF00BF3046FBF711FC00BF00BF36E030
:104A0000062084F83600012084F8860000BF00BF2D
:104A10003046FBF703FC00BF00BF28E0072084F806
:104A20003600012084F8860000BF00BF3046FBF747
:104A3000F5FB00BF00BF1AE000BF00BF00BF94F845
:104A40008600401C84F8860000BF00BF3046FBF79C
:104A5000E5FB00BF00BF0AE000BF00BF3046FBF728
:104A6000DDFB00BF00BF46F62D6028809CE700BF3D
:104A7000FDF722FD00BF97E724010020BC000020C5
:104A800070B51546066846B90D6500264E618E6103
:104A9000C86101600126868033E0046802682B4605
:104AA00024E0166D9E421DD396696EB90B650026F3
:104AB0008E614A61C861166DF61A166591610160D2
:104AC0008688761C86800CE094690B658C614A614F
:104AD000C861166DF61A1665916161618688761C4B
:104AE000868070BD166D9B1B14465269002AD8D172
:104AF0000B658C6100264E61C86161618688761CF9
:104B0000868000BFEDE700002DE9F04104460D4628
:104B100090461F46B8F1040F0ED1284800682E1A9F
:104B200016F5803F01D8002E3CD10020206547F2C9
:104B30007E203880BDE8F081B8F1080F29D11F49E7
:104B4000606D0968081AA84205D92E461B480068FE
:104B50002844606526E01949606D0968081A2E1A14
:104B600016F5803F00D886B91449606D0968081AA7
:104B7000B0FBF5F005FB0050616D08446065002056
:104B8000206547F27E203880D4E7606D2844606558
:104B900008E00DB12E4605E00020206547F27E209A
:104BA0003880C7E7012084F83600324621460448A1
:104BB000FFF766FF0020388000BFBBE7EC00002055
:104BC000F400002030B5C26983694169ABB929B9E5
:104BD0000024146094800465C4611EE000248C618C
:104BE0000C6D056D2C440C6511609488641E9480D6
:104BF000002444610465C4610FE0596121B18B61F7
:104C00000C6D056D2C440C65002484619488641E31
:104C10009480002444610465C46130BD7047000085
:104C20002DE9F0474FF0000900BF00BFFBF7F2FA93
:104C3000814600BF00BFFCF701FE064600271D4D60
:104C40002C683CB3206D401E20651FE0781C87B2A5
:104C500094F83600012806D1002084F8360020465A
:104C6000FFF7DCF806E094F83600052802D10420AE
:104C700084F83600606928602C6814B90020A88088
:104C800007E0A888401EA8800020A061206D0028B1
:104C9000DCD000BFEF80FCF7D1FDA0EB060800BF21
:104CA00000BF4846FBF7BAFA00BF00BF4046BDE868
:104CB000F0870000F40000202DE9F05F4FF0000BBA
:104CC00000BF00BFFBF7A6FA834600BF00BFFCF79A
:104CD000B5FD07464FF000083B4D2C68002C63D013
:104CE000206D401E20655BE008F101001FFA80F88E
:104CF000002694F83400042802D1206BC068466A6C
:104D00000020A065A4F85C00FCF798FDA064204694
:104D1000FEF765FF94F83600032806D12046FFF71A
:104D20007DF8002084F8360006E094F83600072865
:104D300002D1042084F83600032084F835000020D6
:104D400084F8340006B396F8370096F83810884295
:104D50001AD096F8370094F83710884214D13046AC
:104D6000FEF730FE814696F83800484502DA96F89C
:104D7000380000E04846814696F83700484503D0A1
:104D800049463046FFF7F4FA606928602C6814B988
:104D90000020A88007E0A888401EA8800020A0610D
:104DA000206D0028A0D000BFA5F80680FCF746FDC6
:104DB000A0EB070A00BF00BF5846FBF72FFA00BF61
:104DC00000BF5046BDE8F09FFC00002008B500275A
:104DD00028E06B46002211461046FDF77DFFBDF826
:104DE0000000F8B900BF00BFFBF714FA074600BF88
:104DF00000BF0D480068401C0B49086000BF00BFA1
:104E00003846FBF70BFA00BF00BFFFF709FF064665
:104E1000FFF752FF0546741904480068A04201D20A
:104E200002480460D5E70000EC000020F0000020FC
:104E300010B58AB004460020204908602049086067
:104E4000204908601E498880C8801E498880C88023
:104E50001D48006820B947F2122020800AB010BD1A
:104E60001A4800681A490968884203D247F2132099
:104E70002080F3E7174800783F2803D347F211203A
:104E80002080EBE70B2000210591CDE90704069176
:104E900008460E490A68104909680B4B1B68CDE9A2
:104EA0000131CDE903200B48007800230B4A0CA107
:104EB00000901048FDF70CFD00BFCFE7EC0000208C
:104EC000F4000020FC000020D4630008DC6300082C
:104ED000C8630008D0630008D8630008CD4D0008FF
:104EE00075432F4F532D494949205469636B205412
:104EF00061736B00983E002010B58AB00446002014
:104F00002F4908602F4908602F4908802F48006802
:104F100040B12F4800682D490968B0FBF1F02D49D8
:104F2000086006E02A4800680A21B0FBF1F0294930
:104F30000860284800682849086000202749086060
:104F400027490860224627A12A48FDF7CFF8208884
:104F500008B10AB010BD2848006818B947F24730B8
:104F60002080F6E72548006825490968884203D271
:104F700047F248302080ECE7224800783F2803D3EE
:104F800047F246302080E4E70B20002105910A46D5
:104F9000CDE907040691194800681B490968164BBA
:104FA0001B68CDE90131CDE90302164800780023E2
:104FB000164A17A100901C48FDF78AFC00BFC8E7FD
:104FC000040100200C01002008010020E863000813
:104FD000CC6300081C0100202001002018010020E3
:104FE000140100204F5320546D72204D7574657864
:104FF00000000000583F0020EC630008F463000844
:10500000C8630008E4630008F06300084950000822
:1050100075432F4F532D4949492054696D657220BE
:105020005461736B00000000883F00200EB502A899
:1050300001AB0022114600900148FDF78FF80EBD2C
:10504000583F0020704700001CB53FE001AB6A46A6
:1050500000210846FDF740FEFFF7E8FFFCF7EEFBF6
:1050600006461B480068401C194908601948046836
:105070001FE001A8FDF772FAD4F81080A069401E65
:10508000A061A06980B9A08C022802D1206AA06129
:1050900005E0204600F022F8032084F82600A568E9
:1050A00015B12046E168A847444601A8FDF786FAF5
:1050B00000BF002CDDD1FCF7C1FB871B00F030F8EE
:1050C00005480068B84201D203480760BEE7000007
:1050D000180100200C0100201401002010B50E4B17
:1050E0001B68834206D101690B4B196039B100235B
:1050F0004B6104E0416902690A6102B15161012317
:1051000080F82630002303614361044B1B885B1E3B
:10511000024C238010BD00000C010020080100207B
:1051200008B56A4600210248FDF700F908BD0000F5
:10513000583F002000B589B00121084600F06AF808
:105140004FF4FA7007900820ADF818000020ADF871
:105150002000ADF81A0006A94FF0804000F054FE80
:105160006020ADF804000120ADF806000020039097
:10517000ADF8100001A94FF0804000F00FFD01A92B
:105180004FF0804000F06AFD0821C80600F058FD8D
:105190000821C80600F0B2FD0121880700F0D1FC0B
:1051A00009B000BD1CB50121084600F023F801221A
:1051B00011460F48FCF73DFC012202210C48FCF788
:1051C00038FC022000908DF8040000208DF80600C5
:1051D0008DF8070003208DF8050069460448FCF7A8
:1051E000E0FB0420009069460148FCF7DAFB1CBD97
:1051F0000000024029B1064A12680243044B1A60BB
:1052000004E0034A12688243014B1A6070470000B1
:105210003038024029B1064A12680243044B1A6032
:1052200004E0034A12688243014B1A607047000091
:105230004038024029B1064A12680243044B1A6002
:1052400004E0034A12688243014B1A607047000071
:105250002038024029B1064A12680243044B1A6002
:1052600004E0034A12688243014B1A607047000051
:1052700044380240F0B50021002200240225002617
:105280000223324F3F6807F00C0121B1042905D0F9
:10529000082937D105E02E4F076036E02D4F076013
:1052A00033E02A4F3F1F3F68C7F38056274F3F1F09
:1052B0003F6807F03F036EB1264FB7FBF3F7DFF807
:1052C0008CC0ACF1040CDCF800C0CCF3881C07FBEC
:1052D0000CF40CE01E4FB7FBF3F7DFF870C0ACF135
:1052E000040CDCF800C0CCF3881C07FB0CF4174F4F
:1052F0003F1F3F68C7F301477F1C7D00B4FBF5F7F4
:10530000076002E0124F076000BF00BF0F4F3F6809
:1053100007F0F0010909104F7A5C0768D740476031
:105320000A4F3F6807F4E051890A0B4F7A5C4768DF
:10533000D7408760054F3F6807F46041490B064F2F
:105340007A5C4768D740C760F0BD0000083802406B
:105350000024F40040787D01000000201CB50121EC
:105360000846FFF747FF4FF40070009001208DF8CA
:10537000040000208DF8060001208DF807000220AF
:105380008DF8050069462748FCF70BFB012108460C
:10539000FFF730FF2020009069462248FCF701FB10
:1053A00001210846FFF726FF4020009069461D486E
:1053B000FCF7F7FA01210846FFF71CFF8020009058
:1053C00069461848FCF7EDFA01210220FFF712FFA9
:1053D0004FF48050009069461348FCF7E2FA01212F
:1053E0000220FFF707FF4FF40050009069460E4877
:1053F000FCF7D7FA01210220FFF7FCFE4FF48040B2
:10540000009069460848FCF7CCFA01210220FFF71A
:10541000F1FE4FF40040009069460348FCF7C1FAE2
:105420001CBD0000000002400004024010B5FFF760
:1054300095FF4FF400711248FCF71EFB2021104825
:10544000FCF71AFB40210E48FCF716FB80210C48A4
:10545000FCF712FB4FF480510A48FCF70DFB4FF4A8
:1054600000510848FCF708FB4FF480410548FCF761
:1054700003FB4FF400410348FCF7FEFA10BD0000A7
:1054800000000240000402401CB501210846FFF75D
:10549000B1FE01214807FFF7BDFE10200090032058
:1054A0008DF8040000208DF8070069460948FCF7D4
:1054B00078FA2C200849086000204860C860FCF792
:1054C000EDF901210020FCF7BFF901210020FCF7D4
:1054D000CFF91CBD000002405820002000B58FB05D
:1054E00001214805FFF786FE4FF0606000901248EA
:1054F0000190124802904020039001200490002067
:10550000059006904FF4805007908000089080111D
:10551000099040020A9000200B9003200C9000207C
:105520000D900E9069460648FCF70EFA01210448DA
:10553000FCF7FEF90FB000BD2074004054000020BD
:105540008860024010B5FFF79FFF00F003F8FFF7F7
:10555000C5FF10BD0EB501210420FFF75BFE13202F
:1055600001900020ADF80000ADF80800ADF8020091
:105570006946064800F048FC2021044800F017FC6A
:105580000121024800F0DDFA0EBD000000080040D5
:10559000704700000CB50020019000904148006861
:1055A00040F480303F49086000BF3E48006800F486
:1055B000003000900198401C0190009818B90198A3
:1055C000B0F5A04FF1D13748006800F4003010B1B9
:1055D0000120009001E0002000900098012860D197
:1055E00030484030006840F080502E49403108601B
:1055F0002D48006840F440402B4908602948083095
:1056000000682849083108600846006840F40040F6
:1056100008600846006840F4A05008602348091F4D
:105620000860081F006840F08070091F086000BF14
:105630001C48006800F000700028F9D01A48006883
:1056400040F480301849086000BF1748406800F4F3
:1056500080300028F9D01448006840F40030124926
:10566000086000BF1048406800F400300028F9D0FE
:1056700040F205700E4908600A480830006820F0C2
:1056800003000849083108600846006840F002003D
:10569000086000BF03480830006800F00C000828CC
:1056A000F8D10CBD0038024000700040195A400784
:1056B000003C024010B51548006840F470001349E2
:1056C00008601348006840F001001149086000209C
:1056D0000F49083108600E4800680E4908400C491F
:1056E00008600D48091D0860081F006820F480202C
:1056F000091F0860002006490C310860FFF74AFFC7
:105700004FF0006001498039086010BD88ED00E06D
:1057100000380240FFFFF6FE10300024F0B50C46C2
:10572000154600210022068C4FF6FE773E40068487
:10573000018B028C4FF60C7631407E1C06EA031674
:105740002E4331434FF6F576324044F001063243A2
:1057500001830284F0BDF0B50C46154600210022FD
:105760000026078C4FF6EF7C07EA0C070784018BB5
:10577000028C4FF6FF7707EA041640F6FF473940E0
:105780004FF6FF7707EA033739434FF6FF7707EA0B
:10579000052739434FF65F773A4046F010073A4302
:1057A00001830284F0BD00001CB501210846FFF70B
:1057B00021FD01210420FFF71DFD012208211048D1
:1057C000FCF737F9022206210E48FCF732F94FF4B4
:1057D0008070009002208DF8040000208DF80600F3
:1057E0008DF8070003208DF8050069460448FCF792
:1057F000D8F84020009069460248FCF7D2F81CBD5A
:10580000000002400008024008B54FF4E060FCF7D9
:105810006BFA1B208DF8000000208DF8010003209A
:105820008DF8020001208DF803006846FCF720FA8D
:105830001D208DF800006846FCF71AFA08BD00002C
:1058400000B587B001210846FFF704FD01210220C1
:10585000FFF7E0FC4FF6FE700590B320ADF81000A6
:105860000020ADF81800ADF812008DF81A0004A958
:105870003C4800F0C9FA5920ADF8100004A93A4894
:1058800000F0C2FA0020ADF80400ADF806000120D7
:10589000ADF808000020ADF80A00ADF80C0001A931
:1058A000304800F034FA0420ADF804000220ADF8CE
:1058B0000600ADF808000020ADF80A00ADF80C00B5
:1058C00001A9284800F023FA0020ADF80400ADF843
:1058D00006000120ADF808000020ADF80A00ADF880
:1058E0000C0001A9204800F012FA0420ADF80400D1
:1058F0000220ADF80600ADF808000020ADF80A005F
:10590000ADF80C0001A9184800F001FA5021154823
:1059100000F03BFA0421134800F052FA80211148AC
:1059200000F03CFA5021104800F02FFA04210E48F4
:1059300000F046FA80210C4800F030FA01210948B5
:1059400000F0FFF80121084800F0FBF801220221D5
:10595000044800F019F901220221034800F014F96B
:1059600007B000BD000001400004004070B52DEDFF
:10597000068B9FED2C0BB0EE408AF0EE608A00247F
:1059800000260221294800F0EEF8E0B3274800F095
:10599000E4F884B2254800F0E3F886B2A4B36420AA
:1059A000704390FBF4F52846FAF7D2FD41EC180B52
:1059B0009FED1F0B53EC102B51EC180BFAF706FE62
:1059C00028D89FED1D0B53EC102B51EC180BFAF758
:1059D00015FE1FD89FED180B53EC102B51EC180B34
:1059E000FAF7CFFC41EC1A0B9FED150B53EC102B83
:1059F000FAF7CDFC41EC190B9FED130B53EC102B78
:105A0000FAF737FD01E009E004E041EC100B104823
:105A100080ED000B0221054800F090F8BDEC068BEC
:105A200070BD000000000000000000000000014008
:105A30000000000000E05540000000000000294088
:105A400000000000008076400000000000C05240CE
:105A50003000002070B52DED068B9FED2C0BB0EEC5
:105A6000408AF0EE608A002400260221294800F0D6
:105A70007AF8E0B3274800F070F884B2254800F0C7
:105A80006FF886B2A4B36420704390FBF4F5284607
:105A9000FAF75EFD41EC180B9FED1F0B53EC102B3A
:105AA00051EC180BFAF792FD28D89FED1D0B53EC23
:105AB000102B51EC180BFAF7A1FD1FD89FED180B16
:105AC00053EC102B51EC180BFAF75BFC41EC1A0B62
:105AD0009FED150B53EC102BFAF759FC41EC190B09
