:020000040800F2
:10000000F0500020C10100085F12000861100008D4
:10001000F510000819070008874E000800000000CE
:10002000000000000000000000000000BD4A0008C1
:10003000C50E00080000000015030008152C00087C
:10004000FB010008FB010008FB010008FB010008A0
:10005000FB010008FB010008FB010008FB01000890
:10006000FB010008FB010008FB010008FB01000880
:10007000FB010008FB010008FB010008FB01000870
:10008000FB010008FB010008FB010008FB01000860
:100090001D070008FB010008FB010008FB01000828
:1000A000FB010008FB010008FB010008FB01000840
:1000B000FB010008FB010008FB010008FB01000830
:1000C000FB010008FB010008FB010008FB01000820
:1000D000FB010008FB010008494C0008FB01000877
:1000E000FB010008FB010008FB010008FB01000800
:1000F000FB010008FB010008FB010008FB010008F0
:10010000FB010008FB010008FB010008FB010008DF
:10011000FB010008FB010008FB010008FB010008CF
:10012000FB010008FB010008FB010008FB010008BF
:10013000FB010008FB010008FB010008FB010008AF
:10014000FB010008FB010008FB010008FB0100089F
:10015000FB010008FB010008FB010008FB0100088F
:10016000FB010008FB010008FB010008FB0100087F
:10017000FB010008FB010008FB010008FB0100086F
:10018000FB010008FB010008FB010008FB0100085F
:10019000FB010008FB010008FB010008FB0100084F
:1001A000FB010008FB010008FB010008DFF80CD090
:1001B00000F046F800480047594F0008F050002072
:1001C000DFF83800016841F470010160BFF34F8F20
:1001D000DFF82C00016821F040410160BFF36F8F10
:1001E0000848804708480047FEE7FEE7FEE7FEE7CD
:1001F000FEE7FEE7FEE7FEE7FEE7FEE788ED00E04C
:1002000034EF00E0E14B0008AD01000872B6704722
:1002100062B67047EFF3108072B6704780F31088B3
:10022000704730BF704720BF7047B0FA80F070470A
:1002300090FAA0F0B0FA80F0704790FAA0F0704702
:10024000064C074D06E0E06840F0010394E8070023
:1002500098471034AC42F6D3FFF7ACFFB851000812
:10026000D8510008EFF3098141B1F1EE101A40F8BE
:10027000041D20ED200A3B490A6810607047B0EC6D
:10028000200A02C8E1EE101A37490A681060704768
:1002900072B64EF62250CEF2000040F2FF01C0F2DC
:1002A0000001017040F2FC00C2F20000016881F31D
:1002B000088840F27200C2F2000040F27301C2F2FC
:1002C00000010A78027040F2F405C2F2000540F223
:1002D000F801C2F200010A682A60106880F30988F8
:1002E000EFF3148040F0020080F31488BFF36F8FA7
:1002F000BDE8F00F0FBCBDE8005006BC62B6084771
:100300001A484FF080510160704718484FF08051F3
:100310000160704772B6EFF3098020E9F00F40F2F8
:10032000F405C2F200052E683060744602F098FBB6
:1003300040F27200C2F2000040F27301C2F200010A
:100340000A78027040F2F801C2F200010A682A60DD
:1003500044F0F40E1068B0E8F00F80F3098862B63C
:1003600070470000F4000020F800002004ED00E0D9
:1003700008B51CE04FF480510D4800F064FE28B130
:100380004FF480510A4800F067FE04E04FF48051BA
:10039000074800F063FE074800F058FC054906488E
:1003A00000F09CFC6A460021322002F0B5FBE1E738
:1003B000001C0240DC2000200064004008B505E07D
:1003C0006A4600214FF47A7002F0A6FBF8E708B500
:1003D00005E06A46002141F2883002F09DFBF8E713
:1003E00008B505E06A46002142F2107002F094FB65
:1003F000F8E7000070B58AB0064600F075F900F025
:1004000000FD00F069F9044655480068B4FBF0F5BA
:10041000284602F01BFC00F079FE09A801F0E2FC7E
:1004200009A864210C234F4ACDE900104EA152487F
:1004300001F0C6F809A8032100220592CDE90621A2
:10044000089005204FF4807119224C4BCDE9013200
:10045000CDE9031003200023494A4AA100904D48EA
:1004600001F042FD09A8032100220592CDE90621F1
:10047000089005204FF480711922474BCDE90132D5
:10048000CDE9031003200023444A45A100904848C9
:1004900001F02AFD09A8032100220592CDE90621D9
:1004A000089005204FF480711922424BCDE90132AA
:1004B000CDE90310032000233F4A40A100904348A8
:1004C00001F012FD09A8032100220592CDE90621C1
:1004D000089005204FF4807119223D4BCDE901327F
:1004E000CDE90310022000233A4A3BA100903E4888
:1004F00001F0FAFC09A8032100220592CDE90621AA
:10050000089005204FF480711922384BCDE9013253
:10051000CDE9031003200023354A36A10090394865
:1005200001F0E2FC09A8032100220592CDE9062191
:10053000089005204FF480711922334BCDE9013228
:10054000CDE9031003200023304A31A10090354843
:1005500001F0CAFC09A9344801F09AFD0AB070BD47
:1005600018500008642000204D7920506172746991
:1005700074696F6E000000004420002044080020D1
:10058000BD030008417070205461736B204C65649A
:1005900031000000C4010020440C0020CF030008FB
:1005A000417070205461736B204C65643200000010
:1005B0008402002044100020E103000841707020F4
:1005C0005461736B204C65643300000044030020C9
:1005D0004414002071030008417070205461736B53
:1005E0002043616E54780000040400204418002069
:1005F0002D060008417070205461736B20557361A3
:1006000072740000C4040020441C0020B1060008DD
:10061000417070205461736B205573617274205463
:100620007800000084050020040100200EB500259C
:10063000002617A004F056FC29E002A8002301AA16
:1006400019460090184601F0F3FD044600BF00BFB4
:10065000FFF7E0FD054600BF00BFBDF80410C8B2BB
:10066000124A214600F0D8FD064636B1012E02D0CE
:10067000022E03D100E002E001E000E000BF00BF75
:1006800000BF00BF2846FFF7C9FD00BF00BFD4E789
:10069000557361727420496E697469616C697A6519
:1006A000207375636365737321212100100000209E
:1006B0001FB50DE003A901AB02AA00910021084675
:1006C00001F0B6FDBDF808200146024804F0ECFB3D
:1006D000F0E70000004400401FB5684604F07AF9D6
:1006E000019804B010BD000010B500F0EDFC00F062
:1006F0005FF800F0E9FB02A1064804F0E5FB10BD3D
:10070000B3F5CABCBBAFB3C9B9A6A3A1A3A1A3A1AA
:10071000000000000044004000BFFEE71CB51E4A78
:1007200000211E4800F01AFA1B48406841F21431BB
:1007300088422FD11848007A04282BD11648807A95
:10074000082827D11649174800F0AAFF1649086063
:1007500011488088000A096808700F48007912491A
:1007600009684870002408E00B480B30015D0E4812
:100770000068801C0155601CC4B2082CF4DB0848DA
:1007800000210B460C22CDE90010074801680748FC
:1007900003F02CFB1CBD0000F02000200064004092
:1007A0002400002044200020200000208405002098
:1007B00010B500F0CDF800F0BDF900F08BF900F0B5
:1007C000A1F810BD10B504460B48844209D101219F
:1007D000480604F0EFF800214FF0007004F0EAF84A
:1007E00008E00121880604F0E5F800214FF0806060
:1007F00004F0E0F810BD00000064004010B50021D6
:10080000837A012202FA03F13D4A126842F00102A2
:100810003B4B1A603A4A1C3212688A43384B1C33ED
:100820001A60027BCAB9364A0C3212688A43344BCA
:100830000C331A604288C38842EA0343304A40328C
:10084000847A42F834300288838842EA03432C4A8F
:100850004032847A02EBC4025360027B012A19D130
:10086000274A0C3212680A43254B0C331A6042881F
:10087000038842EA0343224A4032847A42F8343001
:10088000C288838842EA03431D4A4032847A02EBDD
:10089000C4025360C27A3AB9194A121D12688A43D7
:1008A000174B1B1D1A6006E0154A121D12680A43F9
:1008B000134B1B1D1A60028932B9114A1432126897
:1008C0008A430F4B14331A600289012A06D10C4A5D
:1008D000143212680A430A4B14331A60427B012A0D
:1008E00006D1074A1C3212680A43054B1C331A60B2
:1008F000034A126822F00102014B1A6010BD000089
:10090000006600401FB500208DF80A008DF80B002E
:100910008DF80C00ADF8000040F26940ADF802001F
:100920000020ADF804004FF6FF70ADF8060000207F
:10093000ADF8080001208DF80D006846FFF75EFF56
:1009400001220221014800F031F81FBD006400407F
:100950001CB50121022004F00DF8092208211248DB
:1009600000F04EFB092211460F4800F049FB4FF4FE
:100970000070009002208DF804008DF80500002022
:100980008DF8060001208DF807006946064800F042
:10099000EFFA4FF48070009002208DF80400694651
:1009A000014800F0E5FA1CBD000402401AB1436999
:1009B0000B43436102E043698B434361704730B5A9
:1009C000024600200023146824F002041460146816
:1009D00044F00104146000E05B1C546804F001045E
:1009E0001CB94FF6FF74A342F6D1546804F0010419
:1009F0000CB900206CE08C79012C04D1146844F00F
:100A00008004146003E0146824F080041460CC793E
:100A1000012C04D1146844F04004146003E014680D
:100A200024F0400414600C7A012C04D1146844F0C2
:100A30002004146003E0146824F0200414604C7A4D
:100A4000012C04D1146844F01004146003E014680D
:100A500024F0100414608C7A012C04D1146844F042
:100A60000804146003E0146824F008041460CC7ACD
:100A7000012C04D1146844F00404146003E01468E9
:100A800024F0040414608C78A407CD7844EA05644B
:100A90000D7944EA05444D7944EA05540D886D1EEC
:100AA0002C43D461146824F001041460002300E096
:100AB0005B1C546804F001041CB14FF6FF74A342A0
:100AC000F6D1546804F001040CB1002000E00120CC
:100AD00030BD00000EB50121480603F05BFF14484D
:100AE000FFF770FE684600F0E9F800208DF8060078
:100AF00001208DF807008DF8080000208DF809000E
:100B00008DF80A008DF80B008DF8020001208DF899
:100B1000030004208DF8040002208DF805000A204F
:100B2000ADF8000069460248FFF749FF0EBD00001E
:100B30000064004008B54FF4C06000F0E1FB1420F1
:100B40008DF8000000208DF801008DF802000120D2
:100B50008DF80300684600F097FB08BD10B500F55E
:100B6000D87303EB01131B6803F004031372137AA9
:100B700053B900F5D87303EB01131B6840F2FF74FF
:100B800004EA5353136009E000F5D87303EB011333
:100B90001B686FF0604404EAD303536000F5D87318
:100BA00003EB01131B6803F00203537200F5D873C3
:100BB00003EB01135B6803F00F03937200F5D87326
:100BC00003EB01135B681B0AD37400F5D87303EBC6
:100BD00001139B68D37200F5D87303EB01139B6874
:100BE0001C0A147300F5D87303EB01139B681C0CEB
:100BF000547300F5D87303EB01139B681B0E9373BA
:100C000000F5D87303EB0113DB68D37300F5D873D9
:100C100003EB0113DB681C0A147400F5D87303EBB3
:100C20000113DB681C0C547400F5D87303EB01133B
:100C3000DB681B0E937421B9C36843F02003C360C3
:100C400003E0036943F02003036110BD0021194A4A
:100C50001278194B1A70174A1288120A5A70154ADC
:100C60001268120C9A70134A1268120EDA70114A46
:100C700012781A710F4A1288120A5A710D4A1268B4
:100C8000120C9A710B4A1268120EDA7140F2694224
:100C900002600022027242720822827200BF06E0E5
:100CA000054A535C00F10B0253544A1CD1B2082987
:100CB000F6DB704710000020140000200021817135
:100CC000C171017241728172C1728170C170032160
:100CD00001710221417101210180704710B5024666
:100CE0000020936803F08063B3F1806F00D110E0BF
:100CF000936803F00063B3F1006F01D1012008E0B5
:100D0000936803F08053B3F1805F01D1022000E0CB
:100D10000420042874D002F5C07303EB00131B6891
:100D200003F0010402F5C07303EB00131C600B7A9F
:100D30007BB94B7A0C8843EA445302F5C07404EB48
:100D400000142468234302F5C07404EB00142360EC
:100D500010E00B7A4C6843EAC4034C7A234302F553
:100D6000C07404EB00142468234302F5C07404EB40
:100D7000001423608B7A03F00F038B7202F5C073AB
:100D800003EB00135B6823F00F0402F5C07303EB61
:100D900000135C6002F5C07303EB00135B688C7A90
:100DA000234302F5C07404EB001463608B7B1C06C4
:100DB0004B7B44EA03440B7B44EA0323CC7A234372
:100DC00002F5C07404EB0014A3608B7C1C064B7C02
:100DD00044EA03440B7C44EA0323CC7B234302F51F
:100DE000C07404EB0014E36002F5C07303EB00135E
:100DF0001B6843F0010402F5C07303EB00131C6091
:100E000010BD10B500F022F800F01AF810BD000077
:100E100010B5002400BF00BFFFF7FCF9044600BF77
:100E200000BF1021054800F067F900BF00BF204651
:100E3000FFF7F4F900BF00BF10BD00000D21002036
:100E400010B5FFF7E5FF10BD00BFFEE710B50020AD
:100E50000249086000F00AF810BD000028000020D8
:100E600001490860704700002800002010B5FFF716
:100E700033FC04460848006840F08070064908606A
:100E80000020064948600846006840F001000860FC
:100E90002046FFF7E5FF10BDFCED00E0001000E08C
:100EA0000149486870470000001000E00246002039
:100EB00005E01378034498B2521C4B1ED9B20029A6
:100EC000F7D170477047000000B587B001210820B6
:100ED00003F050FD0121480403F05CFD07220621C8
:100EE000214800F08DF8072205211F4800F088F8FE
:100EF00000208DF81A0001208DF81B0002208DF8CB
:100F000018002020059002208DF8190005A9164828
:100F100000F02EF802208DF818004020059005A959
:100F2000114800F025F84FF4E13001900020ADF8B1
:100F30000800ADF80A00ADF80C00ADF810000C2068
:100F4000ADF80E0001A9094803F02AFF00F088F966
:100F5000012240F22551054803F0FDFE012103481E
:100F600003F0B6FE07B000BD000C02400044004094
:100F7000F0B50A4600210023002400BF3DE0012512
:100F800005FA01F3156805EA03049C4234D10568AB
:100F90004F000326BE40B543056015794E00B540AD
:100FA0000668354305601579012D02D01579022DAB
:100FB00016D185684F000326BE40B543856055793C
:100FC0004E00B540866835438560456801268E40F1
:100FD000B5434560456896798E40B6B23543456065
:100FE000C5684F000326BE40B543C560D5794E00A5
:100FF000B540C6683543C560491C1029BFD3F0BD54
:10100000F0B5002300244D07ED0E02FA05F3CE10D3
:1010100000F1200555F826504E07F70E0F26BE406A
:10102000B543CF1000F1200646F82750CE1000F14E
:10103000200555F8265045EA0304CE1000F120059E
:1010400045F82640F0BD0246002053690B400BB125
:10105000012000E000207047418370470183704702
:1010600000BFFEE71CB50121802003F083FC4FF494
:101070008060009001208DF8040000208DF80600AB
:1010800001208DF8070002208DF8050069460D4803
:10109000FFF76EFF0121802003F06CFC4FF400602D
:1010A000009069460748FFF763FF0121802003F0A5
:1010B00061FC4FF48050009069460248FFF758FFEA
:1010C0001CBD0000001C024010B5FFF7CBFF4FF421
:1010D00080610748FFF7C2FF4FF400610448FFF743
:1010E000BDFF4FF480510248FFF7B8FF10BD00006C
:1010F000001C024000BFFEE730B505460C46224604
:101100000021284600F05EF830BD00003EB500200A
:101110000C4908600C4C02A801214FF440632246A0
:10112000CDE9001009490AA000F016F8BDF8080042
:1011300042F21071884203D000BFFFF785FE00BF66
:101140003EBD00002C00002020210020202D00208A
:1011500048656170000000002DE9F84F05460E4615
:1011600017461C46DDE90A894FF0000A00BF00BFA0
:10117000FFF750F8824600BF00BF43463A4631466B
:101180002846009400F00EF800BF00BF5046FFF75D
:1011900045F800BF00BF42F21070A9F80000BDE89A
:1011A000F88F000030B5039C0A60651E15444D6041
:1011B0008A60034D2D68CD600B61014D296030BD03
:1011C0002C0000202DE9F04105460B4694460027EF
:1011D000002402E03F021F43641C042CFAD3604643
:1011E00005F00306294646B1344603E001F8013B09
:1011F000401E641C08B1042CF8D30A4601E080C2EA
:10120000001F0428FBD2114602E001F8013B401EFA
:101210000028FAD1BDE8F0812DE9F04106460C46E0
:1012200015460027E079217A40EA0127B01EC1B2B5
:101230002046FFF73BFEB8420DD1E078217940EA25
:101240000120617940EA0140A17940EA016028600B
:10125000A078BDE8F0810020286000BFF9E7704762
:1012600008B54FF4C06000F04BF826208DF8000060
:1012700001208DF801008DF802008DF8030068460A
:1012800000F002F808BD000070B5002100230F2215
:10129000C4781CB3174C246804F4E064C4F5E0641B
:1012A000C4F30721C1F10404E3B20A4144789C402D
:1012B000E1B28478144021430C07210E0E4C0578CE
:1012C0006155047804F01F050124AC4005786D11C8
:1012D000AD0005F1E025C5F8004109E0047804F00F
:1012E0001F050124AC40054D0678761145F82640CF
:1012F00070BD00000CED00E000E400E080E100E0E3
:1013000002490143024A1160704700000000FA05DB
:101310000CED00E07047000010B50348006810B104
:1013200001480068804710BD4400002070B50446A5
:1013300000F0AEF800204149087041490870414969
:1013400008704149086041490860414908704149B5
:1013500008704149087041490860414908604149A5
:1013600008604148006858B14048056845B13E48AA
:10137000066803E0761E002028602D1D002EF9D19E
:1013800000203B4908603B4908603B4908603B49F5
:1013900008603B4908603B4908603B4908603B499D
:1013A000087002F00DF902F047F9204601F03AFD0D
:1013B000208800B170BD204601F0AEFD208800B14C
:1013C000F8E7204601F0B4FD208800B1F2E720469E
:1013D00001F03CFF208800B1ECE7204602F020F944
:1013E000208800B1E6E7204602F0E6F9208800B147
:1013F000E0E7204602F08CFC208800B1DAE72046C6
:1014000001F03EFD208800B1D4E7204603F030F91A
:10141000208800B1CEE7204602F04EFB208800B1C4
:10142000C8E7204603F088F9208800B1C2E701F040
:1014300025FCFFF76FFF00BFBCE70000580000204D
:10144000590000208C000020F4000020F80000204B
:101450007200002073000020740000208000002033
:101460008400002088000020E84F0008E44F0008B6
:10147000380000203C0000204000002044000020F4
:10148000480000204C00002050000020BA0000203E
:10149000064800680649096800EB810005490860B4
:1014A0000846006820F0070008607047E44F000815
:1014B000E84F0008FC00002008480078012800D010
:1014C000704707480078FA2800DBF9E704480078FD
:1014D000401C0349087000BFF2E7000059000020DB
:1014E0005800002010B500242D480078012800D0B5
:1014F00010BD00BFFEF78EFE044600BF29480078ED
:1015000028B900BF2046FEF789FE00BFF0E7254856
:101510000078401E2349087008460078002805DD41
:1015200000BF2046FEF77AFE00BFE1E71E480078C4
:10153000002805DD00BF2046FEF770FE00BFD7E79C
:1015400002F02AF8194908700846007800EB4000BC
:10155000174951F8200017490860084600681649E5
:101560000968884205D100BF2046FEF757FE00BF3C
:10157000BEE710480068D0F88C00401C0D4909688F
:10158000C1F88C000D480068401C0C490860FEF74B
:10159000BCFE00BF2046FEF741FE00BF00BFA7E72C
:1015A00059000020580000208C000020730000200B
:1015B000803B0020F8000020F4000020B000002054
:1015C0002DE9FF4F83B0044615461F46DDE910960E
:1015D000002000902DB945F2BB60308007B0BDE817
:1015E000F08F022F03DA45F2BC603080F6E7B9F1E4
:1015F000040F03D245F2C1603080EFE74FF0030AD9
:10160000BAF1000F0DD005EA0A0018B145F2BB602F
:101610003080E3E709EA0A0018B145F2C160308082
:10162000DCE7AB46A846781E80B20190002002900D
:1016300007E0C844CBF80080C3460298401C80B243
:101640000290DDE901108842F3DB0020CBF80000B6
:1016500000BF00BFFEF7DEFD009000BF00BF0E48D8
:1016600020600498A0606560E560A7826782A4F8A6
:101670001090204601F03CFC08480088401C0749B7
:10168000088000BF00BF0098FEF7C8FD00BF00BF84
:101690000020308000BFA1E74D454D2068000020AC
:1016A0002DE9F04104460D4600272CB945F2BF60F4
:1016B00028800020BDE8F08100BF00BFFEF7AAFD32
:1016C000074600BF00BFA08A58B900BF00BF384618
:1016D000FEF7A4FD00BF00BF45F2C26028800020D5
:1016E000E8E7E6683068E060A08A401EA08200BF9C
:1016F00000BF3846FEF792FD00BF00BF00202880E3
:101700003046D7E72DE9F04104460E46154600273E
:1017100024B945F6C3502880BDE8F08100BF00BF62
:10172000FEF778FD074600BF00BF104820606660E6
:1017300000202062606284F82800E06204F1080062
:1017400001F035FE204601F011FD09480088401CDB
:101750000749088000BF00BF3846FEF75FFD00BFA5
:1017600000BF0020288000BFD6E700004D55545828
:10177000700000202DE9F04788B0054689461746DD
:101780001C46109E4FF0000A2DB945F6C35030801C
:1017900008B0BDE8F0871FB1B7F5004F02D100E0F7
:1017A00000BF03E045F625603080F1E700BF6249E5
:1017B0002868884203D045F6C4503080E8E70CB171
:1017C0000020206000BF00BFFEF724FD824600BF5E
:1017D00000BF95F82800B8B9584800686862012031
:1017E00085F828000CB1E86A206029465348006853
:1017F00001F0D4FC00BF00BF5046FEF70FFD00BF54
:1018000000BF00203080C3E74C49686A09688842FD
:1018100012D195F82800401C85F828000CB1E86A20
:10182000206000BF00BF5046FEF7F8FC00BF00BFBD
:1018300045F282703080ABE707F4004050B100BF42
:1018400000BF5046FEF7EAFC00BF00BF46F2B010F2
:1018500030809DE73A48007800280ADD00BF00BFCD
:101860005046FEF7DBFC00BF00BF46F663503080F9
:101870008EE7D5F8248098F837003049096891F848
:101880003710884206DD2D48006890F83710404632
:1018900002F08EF94B4604222946684601F0E2FC2C
:1018A00000BF00BF5046FEF7B9FC00BF00BF00F00C
:1018B0000FF900BF00BFFEF7ADFC824600BF00BFBE
:1018C0001E48006890F8350030B101280CD002287D
:1018D0001AD0032821D110E01CB118480068806C90
:1018E0002060002030801CE01CB114480068806C2F
:1018F000206046F2A910308013E00CB10020206077
:1019000047F2D92030800CE01CB10C480068806C94
:10191000206045F6C250308003E046F62E603080ED
:1019200000BF00BF00BF00BF5046FEF777FC00BFFE
:1019300000BF00BF2CE700004D555458F4000020B4
:101940008C0000202DE9F84F0446894615464FF0DB
:10195000000B24B945F6C3502880BDE8F88FB9F1D3
:10196000000F03D0B9F5004F02D100E000BF03E043
:1019700045F625602880F0E700BF5249206888427C
:1019800003D045F6C4502880E7E700BF00BFFEF74C
:1019900041FC834600BF00BF4B49606A096888422A
:1019A0000AD000BF00BF5846FEF738FC00BF00BF9A
:1019B00045F281702880D0E7FFF772FA804628341C
:1019C000C4F804802078401E207014F828090028EC
:1019D0000ADD00BF00BF5846FEF720FC00BF00BF75
:1019E00045F283702880B8E721463748006801F047
:1019F0001FFC04F1080ABAF8080068B90020606208
:101A000084F8280000BF00BF5846FEF707FC00BF5F
:101A100000BF00202880A0E72B48006890F837001E
:101A20002949096891F83810884228D0264800686A
:101A300001F0E8FB06462448006890F83810B142EF
:101A400004DA2148006890F8380000E03046064685
:101A50001D48006890F83700B04210DA1A48006854
:101A600001F050FE1848006880F83760304601F0F9
:101A7000B3FD1548006801F027FE14480670DAF837
:101A8000000087686762012084F8280021463846F4
:101A900001F084FB00231A4639462046CDF8008029
:101AA00001F0F8FC00BF00BF5846FEF7B7FB00BFCF
:101AB00000BF09F4004008B900F00AF800202880AF
:101AC00000BF4AE74D555458F40000207200002032
:101AD00010B5002420480078002800DD10BD1F4804
:101AE0000078002800DDF9E700BFFEF793FB04460D
:101AF00000BF01F051FD1A4908700846007800EB5C
:101B00004000184951F8200017490860084600684D
:101B100016490968884205D100BF2046FEF77EFBC2
:101B200000BFDBE710480068D0F88C00401C0E496D
:101B30000968C1F88C000E480068401C0C49086018
:101B4000FEF7DEFB00BF2046FEF768FB00BFBFF3D9
:101B50006F8F00BFC2E70000580000208C000020FB
:101B600073000020803B0020F8000020F4000020DB
:101B7000B000002070B50446002514480078012804
:101B800003D045F68960208070BD11480078FA289E
:101B900003DB45F209202080F6E700BF00BFFEF717
:101BA00039FB054600BF00BF09480078401C0849C2
:101BB000087001F0D5FD00BF00BF2846FEF72EFBE0
:101BC00000BF00BF0020208000BFDDE759000020DB
:101BD0008C00002070B5044600251C4800780128C0
:101BE00003D045F68960208070BD1948007818B987
:101BF00046F664502080F7E700BF00BFFEF70AFBFF
:101C0000054600BF00BF12480078401E104908700A
:101C10000846007800280ADD00BF00BF2846FEF70E
:101C2000FDFA00BF00BF46F663502080DCE701F0FC
:101C3000A5FD00BF00BF2846FEF7F0FA00BF00BFB9
:101C4000FFF746FF0020208000BFCDE759000020AD
:101C50008C00002010B5044612480078E8B901F065
:101C60009BFC1149087008460078104908700E481E
:101C7000007800EB40000E4951F820000D49086043
:101C8000084600680C490860012006490870FEF704
:101C9000FFFA43F69920208002E045F68A60208012
:101CA00010BD0000590000207300002072000020C9
:101CB000803B0020F8000020F40000202DE9F041D6
:101CC00007464FF0000800BF00BFFEF7A3FA8046AA
:101CD00000BF00BF00203B4908803B4908603B49EA
:101CE00008603B4908603B4908603B49088100BFE8
:101CF00000BF4046FEF792FA00BF00BF00BF00BF22
:101D0000FEF788FA804600BF00BF3448046800BF71
:101D100000BF4046FEF782FA00BF00BF21E000BFCF
:101D200000BFFEF777FA804600BF00BF0020743482
:101D3000E06320602063A061A082E0826062A06214
:101D4000FFF7AEF82062743C04F160060020B08119
:101D5000D4F8B84000BF00BF4046FEF75FFA00BFAE
:101D600000BF002CDBD100BF00BFFEF753FA804656
:101D700000BF00BF1A48056800BF00BF4046FEF71D
:101D80004DFA00BF00BF12E000BF00BFFEF742FAED
:101D9000804600BF00BF05F120060020B081AD697C
:101DA00000BF00BF4046FEF739FA00BF00BF002D5C
:101DB000EAD102F053FB02F065FD00203880BDE857
:101DC000F08100009A000020AC000020C00000203C
:101DD000E400002084000020743B0020B4000020B8
:101DE00078000020F8B5044600266946324800F025
:101DF00025FEBDF8000018B1BDF800002080F8BD38
:101E00006A460021022000F087FEBDF8000018B1EC
:101E1000BDF800002080F2E700BF00BFFEF7FAF92E
:101E2000064600BF00BF00202449086000BF00BF75
:101E30003046FEF7F3F900BF00BF002520480068D8
:101E400020490968884205D91D4800681D4909686C
:101E5000B0FBF1F525B91A4800680A21B0FBF1F58D
:101E60006A460021284600F057FE6946124800F0F5
:101E7000E9FABDF8000018B1BDF800002080BEE707
:101E800000BF00BFFEF7C6F9064600BF00BF002036
:101E90000D490860094800680C49086001200C4998
:101EA000087000BF00BF3046FEF7B8F900BF00BFA2
:101EB0000020208000BFA2E7304000209C000020CE
:101EC0001850000800500008AC000020A0000020BE
:101ED000A800002010B50348006810B10148006850
:101EE000804710BD480000202DE9FF4F87B0044611
:101EF0009046DDE91BA5DDE91496179F00200390AD
:101F00002CB947F2AD1028800BB0BDE8F08FB8F1C6
:101F1000000F03D147F24F102880F5E71EB946F6AF
:101F20002F602880F0E750480068874203D246F6C9
:101F300030602880E8E71698B84203D346F631604F
:101F40002880E1E7B9F1400F03D346F273202880DF
:101F5000DAE7B9F13F0F06D14448844203D046F294
:101F600073202880D0E7204601F0E2FE0020288080
:101F70000AF0010090B10AF0020078B10596002045
:101F8000069008E00021059801600598001D059065
:101F90000698401C06900698B842F3D3169806EBB4
:101FA00080000490CDE9007A32464046049B0A99AD
:101FB00000F0E2FB0590C4F828800A98E0620898D7
:101FC000206284F8379084F838900598206004984F
:101FD000A0601A98606066622764A4F844A04FF07D
:101FE000000B08E0002104F1780040F82B100BF101
:101FF000010000F0FF0BBBF1000FF3D004F1600013
:10200000189901F029F8204600F036F800BF00BF0B
:10201000FEF700F9039000BF00BF94F8370001F00D
:10202000DBFA204601F050FB204601F037FE104855
:102030000088401C0E4908800E480078012807D00F
:1020400000BF00BF0398FEF7E9F800BF00BF5BE7E1
:1020500000BF00BF0398FEF7E1F800BF00BFFFF725
:1020600037FD00BF50E7000014500008B43A0020CC
:10207000B80000205900002010B50446034800684D
:1020800018B1204601490968884710BD3800002072
:102090002DE9F04104460E464FF000085B488442AB
:1020A00004D147F24C103080BDE8F0817CB900BF0C
:1020B00000BFFEF7AFF8804600BF00BF5448046879
:1020C00000BF00BF4046FEF7A9F800BF00BF00BF39
:1020D00000BFFEF79FF8804600BF00BF94F83600AF
:1020E000082860D2DFE800F004090E10080A0F117A
:1020F000204601F007FB61E060E000BF204602F0EF
:1021000081F95BE000BF00BF00BF94F834000828ED
:102110003BD2DFE800F0040705080E090A0600BFFD
:1021200000BF33E000BF00BF00BF204601F077F9D9
:102130002CE0206BC068456A15F8377F204601F017
:102140006EF928786978373D884212D095F83700C3
:1021500094F8371088420CD1284601F053F807460E
:1021600095F83800B84202DA95F8380000E03846B1
:102170000746002084F8340095F83700B84203D0B1
:102180003946284601F014FD00E000BF00BF94F876
:102190003600032803D094F83600072802D12046E1
:1021A00002F030F90AE000BF00BF4046FEF736F803
:1021B00000BF00BF46F62D60308075E700BFE06BC2
:1021C00010B1204600F0EEFF04F1600000F0EEFEDA
:1021D000204600F021F8204601F078FD0D480088E7
:1021E000401E0C490880204601F0A2FDFF2084F823
:1021F000360000BF00BF4046FEF710F800BF00BF2A
:1022000000203080FFF764FC00BF4DE7B43A0020A7
:10221000F4000020B800002010B504460348006810
:1022200018B1204601490968884710BD3C000020CC
:102230002DE9F05F80460F4616461C460A9D4FF07A
:10224000000B2EB946F2D52028800020BDE8F09F73
:102250001FB1B7F5004F02D100E000BF04E045F622
:10226000256028800020F1E700BF0CB1002020602D
:1022700000BF00BFFDF7CEFF834600BF00BF5A4836
:10228000006800F160092B4622463146484600F0BE
:10229000AFFE82462888F0B9A4B1FEF701FE21689E
:1022A000401A5149096808674F480068406F4E4915
:1022B0000968096F884205D24B480068006F4A4997
:1022C0000968486700BF00BF5846FDF7A7FF00BF79
:1022D00000BF5046BAE707F4004058B146F2B010CC
:1022E000288000BF00BF5846FDF798FF00BF00BF21
:1022F0000020ABE73D48007800280BDD00BF00BFA1
:102300005846FDF78BFF00BF00BF46F6635028809C
:1023100000209BE7434602220021084600F0A2FF6E
:1023200000BF00BF5846FDF779FF00BF00BFFFF7B1
:10233000CFFB00BF00BFFDF76DFF834600BF00BFAE
:102340002948006890F8350020B101282AD00328D8
:1023500032D132E024480068D0F858A02248006802
:10236000B0F85C003080D4B11F480068806C2060F9
:10237000FEF796FD1C490968896C401A1A490968DC
:10238000086719480068406F17490968096F884253
:1023900005D215480068006F134909684867002096
:1023A000288017E04FF0000A0020308004B1206040
:1023B00046F2A91028800DE000BF4FF0000A00206F
:1023C00030801CB108480068806C206047F2D9203A
:1023D000288000BF00BF00BF00BF5846FDF71EFFAA
:1023E00000BF00BF504631E7F40000208C00002001
:1023F0002DE9FC470746884691461C460A9D4CB18C
:10240000102C08D0B4F5004F06D0A4F500401038C9
:1024100020B902E000BF00BF00BF04E045F6256020
:102420002880BDE8FC8700BFFEF73AFD064623463C
:102430004A4641463846CDE9006501F0D7FC00BF69
:10244000EFE7000070B504460D46002600BF00BF50
:10245000FDF7E0FE064600BF00BF1CB10D48006856
:1024600084420AD100BF00BF3046FDF7D7FE00BF4F
:1024700000BF47F25710288070BD00BF00BF304634
:10248000FDF7CCFE00BF00BF2946204601F01EFD2F
:1024900000BFF1E7F400002010B5044603480068CF
:1024A00018B1204601490968884710BD4000002046
:1024B0002DE9F04780460E4614461D464FF00009B0
:1024C0001EB1B6F5004F02D100E000BF05E045F6B1
:1024D000256028800020BDE8F08700BF0CB10020F7
:1024E000206000BF00BFFDF795FE814600BF00BF22
:1024F0005F480068C06CA8B35D480068C06C401EAF
:102500005B490968C8645A480068C76C1CB15848E0
:102510000068806C2060FEF7C3FC55490968896C2F
:10252000401A53490968C1F8A00051480068D0F822
:10253000A4004F490968D1F8A010884207D24C483E
:102540000068D0F8A0004A490968C1F8A40000BF9B
:1025500000BF4846FDF762FE00BF00BF0020288094
:102560003846B8E7FFE706F4004058B100BF00BFA7
:102570004846FDF753FE00BF00BF46F2B01028806A
:102580000020A8E73B48007800280BDD00BF00BF13
:102590004846FDF743FE00BF00BF46F66350288063
:1025A000002098E7434607220021084600F05AFE23
:1025B00000BF00BF4846FDF731FE00BF00BFFFF778
:1025C00087FA00BF00BFFDF725FE814600BF00BFB0
:1025D0002748006890F8350020B1012826D003284C
:1025E00034D12CE0FCB122480068806C2060FEF7FA
:1025F00057FC1F490968896C401A1D490968C1F8D0
:10260000A0001B480068D0F8A40019490968D1F857
:10261000A010884207D216480068D0F8A0001449DC
:102620000968C1F8A4000020288013E01CB11048FC
:102630000068806C206046F2A91028800AE00CB186
:102640000020206047F2D920288003E046F62E6063
:10265000288000BF00BF06480068C76C00BF00BFED
:102660004846FDF7DBFD00BF00BF384633E70000FA
:10267000F40000208C0000202DE9F04106460D46B4
:1026800014461DB1B5F5004F02D100E000BF05E0D2
:1026900045F6256020800020BDE8F08100BFFEF7F0
:1026A000FFFB8046234642462946304601F09AFC0D
:1026B00007463846F0E700002DE9F04704460E468D
:1026C00017461D464FF0000A26B946F2D52028804D
:1026D000BDE8F0871FB946F2D5202880F8E700BF93
:1026E00000BFFDF797FD824600BF00BF0CB921482F
:1026F0000468206868B900BF00BF5046FDF78EFD32
:1027000000BF00BF00203060386047F252102880C0
:10271000DEE794F8440000F0010068B900BF00BF94
:102720005046FDF77BFD00BF00BF002030603860E1
:1027300047F254102880CBE700BF00BF5046FDF79A
:102740006DFD00BF00BF4FF00008D4F8249003E0F7
:1027500009F1040908F10108D9F800000028F7D0B0
:10276000C6F80080206CA0EB0800386000202880AC
:1027700000BFADE7F4000020F0B50446DDE90556E2
:1027800002EB850020F007004FF0807C071F3846E1
:10279000C7F800C0071F38463C60DFF834C2071F87
:1027A0003846C7F800C04FF0123C071F3846C7F83C
:1027B00000C04FF0033C071F3846C7F800C04FF079
:1027C000023C071F3846C7F800C0071F38463B6069
:1027D000071F384639604FF0113C071F3846C7F8CD
:1027E00000C04FF0103C071F3846C7F800C04FF03C
:1027F000093C071F3846C7F800C04FF0083C071FC8
:102800003846C7F800C04FF0073C071F3846C7F8E6
:1028100000C04FF0063C071F3846C7F800C04FF015
:10282000053C071F3846C7F800C04FF0043C071F9F
:102830003846C7F800C006F00407002F7ED04FF0DE
:10284000007C071F3846C7F800C0DFF888C1071FA3
:102850003846C7F800C0DFF880C1071F3846C7F800
:1028600000C0DFF878C1071F3846C7F800C0DFF89E
:1028700070C1071F3846C7F800C0DFF868C1071FDE
:102880003846C7F800C0DFF860C1071F3846C7F8F0
:1028900000C0DFF858C1071F3846C7F800C0DFF88E
:1028A00050C1071F3846C7F800C0DFF848C1071FEE
:1028B0003846C7F800C0DFF840C1071F3846C7F8E0
:1028C00000C0DFF838C1071F3846C7F800C0DFF87E
:1028D00030C1071F3846C7F800C0DFF828C1071FFE
:1028E0003846C7F800C0DFF820C1071F3846C7F8D0
:1028F00000C0DFF818C1071F3846C7F800C04FF006
:10290000834C071F3846C7F800C0DFF804C1071F13
:102910003846C7F800C0DFF8FCC0071F3846C7F8C4
:1029200000C0DFF8F4C0071F3846C7F800C0DFF862
:10293000ECC0071F3846C7F800C000E047E0DFF8EA
:10294000E0C0071F3846C7F800C0DFF8D8C0071F2F
:102950003846C7F800C0DFF8D0C0071F3846C7F8B0
:1029600000C04FF0824C071F3846C7F800C0DFF8A0
:10297000BCC0071F3846C7F800C0DFF8B4C0071F47
:102980003846C7F800C0DFF8ACC0071F3846C7F8A4
:1029900000C04FF0814C071F3846C7F800C0DFF871
:1029A00098C0071F3846C7F800C04FF0804C071F7B
:1029B0003846C7F800C04FF07E5C071F3846C7F89E
:1029C00000C04FF0000C071F3846C7F800C0F0BD2C
:1029D000CD3F00080000F8410000F0410000E84150
:1029E0000000E0410000D8410000D0410000C84193
:1029F0000000C0410000B8410000B0410000A84103
:102A00000000A04100009841000090410000884172
:102A10000000704100006041000050410000404152
:102A20000000304100002041000010410000E04063
:102A30000000C0400000A0400000404070B50546C6
:102A40000C460648854203D147F25B10208070BDDA
:102A50002146284601F0A8FB00BFF8E7B43A002061
:102A600010B52948006890F8440000F0040020B137
:102A7000254909680868FDF7F5FB2448006890F8C7
:102A8000440000F0040020B1204909680868FDF7FF
:102A9000F6FB1F48006810B11D4800688047FEF72C
:102AA000FFF904461848006818490968884215D09B
:102AB00015480068D0F89400201A13490968C1F835
:102AC000900011480068D0F898000F490968D1F8C3
:102AD000901008440C490968C1F898000B48006838
:102AE000C0F8944008480068D0F8B0000949096867
:102AF000884205D20748006803490968C1F8B00058
:102B000000200449086010BDF4000020F8000020F7
:102B10004C000020880000202DE9F04105460E46BB
:102B20001446002723480078002804DD46F6635049
:102B30002080BDE8F08136B1022E05D0042E0AD0E7
:102B4000082E09D101E000BF00BF1DB947F27E2069
:102B50002080EEE704E003E045F625602080E8E70A
:102B600000BF00BF00BFFDF755FB074600BF00BF19
:102B70002346324629461048006801F0E5FB2088CC
:102B800038B100BF00BF3846FDF748FB00BF00BFAB
:102B9000CFE70948006800F0B5FD00BF00BF384628
:102BA000FDF73CFB00BF00BFFEF792FF0020208036
:102BB00000BFBEE78C000020F400002008B500F044
:102BC0001FF86A4600210A48FFF756FD09480068C9
:102BD000401E084908600846006838B90648006881
:102BE00008606A4600210548FFF746FD08BD000061
:102BF000403F0020F0000020EC000020304000208A
:102C000010B50348006810B101480068804710BD46
:102C10005000002010B5002400BF00BFFDF7FAFAF5
:102C2000044600BF00BF08480078401C06490870F1
:102C300000BF00BF2046FDF7F1FA00BF00BFFFF75D
:102C4000BDFFFEF74FFC10BD5800002001464A1E94
:102C50004FF0E0235A61084A106820F07F4000BF1F
:102C600010601A46126942F005021A611A4612698A
:102C700042F002021A61704720ED00E0244A254923
:102C8000254A264A2649274A2748284A284A294ABF
:102C9000294A2A482A482B4A2B482C4A2C482D4A94
:102CA0002D482E482E482F482F4A304A304A314866
:102CB000314A324A32483348334834483448354838
:102CC0003548364A364A374A374A38483848394804
:102CD000394A3A4A3A4A3B483B483C483C493D48D5
:102CE0003D4A3E4A3E4A3F4A3F4A404A404A41489E
:102CF000414A424A42484348434A444A4448454A72
:102D0000454A4648464800BF00BF00BF7047000024
:102D10004C500008B45100084D5000084E500008B7
:102D200050500008545000085850000855500008F2
:102D3000805000088150000882500008845000082C
:102D4000865000088A5000088C500008AC500008DB
:102D5000AE500008B0500008B2500008B45000084F
:102D6000B6500008B8500008E8500008E9500008C4
:102D7000EA500008EC500008EE500008EF50000840
:102D8000F0500008F2500008F4500008F650000817
:102D9000F8500008FA500008FC5000082C510008B8
:102DA0002D5100082E5100082F5100083051000805
:102DB00032510008345100085C5100085D51000890
:102DC0005E5100085F510008605100086251000820
:102DD0006451000868510008695100086A510008F0
:102DE0006B5100086C5100086D5100086E510008CD
:102DF0006F510008705100087251000873510008AB
:102E00007451000876510008785100087951000883
:102E10007C510008AC510008AD510008AE510008CB
:102E2000B05100080021034A1160034A118001805B
:102E3000704700005C00002060000020002419E0C2
:102E400000BF00BFFDF7E6F9044600BF00BF0A4817
:102E50000068401C0849086008480068401C074991
:102E6000086000BF00BF2046FDF7D8F900BF00BFD3
:102E7000FEF752FAE4E70000540000209C00002016
:102E800010B58AB0044600200E4908600B200021CE
:102E90000591CDE90704069108460B4909680B4ADC
:102EA00012680B4B1B68CDE90132CDE903103F20BE
:102EB0000023084A08A100900C48FFF715F80AB053
:102EC00010BD000054000020C04F0008BC4F000897
:102ED000B84F00083D2E000875432F4F532D494928
:102EE000492049646C65205461736B00B43A00203A
:102EF000002181610749096811B90021C16105E01C
:102F000004490968C1610349096888610149086089
:102F100070470000640000200021034A1160034A4A
:102F200011800180704700006400002068000020CC
:102F300070B501461A4D2D681DB945F21E750D80FC
:102F400070BD184D2D881DB945F21D750D80F7E730
:102F5000134D28682A681032124D2D886D1EACB2B0
:102F6000002308E00260002545600581C56010303F
:102F700010325D1CABB2A342F4DB00250560456056
:102F80000581C560064D2D68074E3560054D2D88BD
:102F9000B5800025F58035810D8000BFD0E70000A9
:102FA000F84F0008F04F0008743B002010B50146B0
:102FB00048894B89002B17DD0A680C4B1B6813608E
:102FC0000A4C4B6823602346DB884C891B1B074C4B
:102FD000E38023469B884C892344044CA380002330
:102FE0004B818B810B604B6010BD0000743B002057
:102FF000F0B504460D46608940B90020288002B132
:10300000106046F2925018800020F0BD61684E6852
:10301000088928800AB1C868106008686060606824
:1030200018B900202060608102E06089401E608144
:10303000084800680860074801608088401C054F08
:10304000B8803846C088401EF8800020188030467E
:10305000DBE70000743B0020018100224281828175
:1030600002604260704700002DE9F0410D46DDE945
:103070000674B0F80AC0B0F80880C44505DB46F213
:10308000935CA4F800C0BDE8F081DFF8DCC0BCF8B8
:1030900004C0BCF1000F04D145F21D7CA4F800C0AF
:1030A000F1E7DFF8C4C0DCF80010DFF8BC80D1F82D
:1030B00000C0C8F800C0C446BCF804C0ACF1010CA4
:1030C000A8F804C0C446BCF806C00CF1010CA8F86E
:1030D00006C0C446BCF808C0B8F80680C44507DA84
:1030E000DFF884C0BCF806C0DFF87C80A8F808C010
:1030F000B0F80AC0BCF1000F0AD1016041604FF086
:10310000010CA0F80AC04FF0000CC1F800C017E095
:1031100003F0100CBCF1000F07D1066831600160AC
:103120004FF0000CC1F800C004E0D0F804C0C1F8B2
:1031300000C04160B0F80AC00CF1010CA0F80AC050
:10314000B0F80CC0B0F80A80C44503DAB0F80AC081
:10315000A0F80CC04D600A81CF604FF0000CA4F8BD
:1031600000C000BF8FE70000743B002009A1C161CF
:10317000002141610849096811B90021816105E018
:103180000549096881610449096848610249086084
:1031900070470000200000006C000020C26B0A6233
:1031A000C16370472DE9F8430546EC6B26E0D4F87F
:1031B0002090FDF775FE0646E6622146284600F09F
:1031C00037F804F10808B8F8080020B9002084F89E
:1031D0002800606211E0D8F800008768656201206D
:1031E00084F8280021463846FFF7D8FF00231A4606
:1031F00039462046009600F04DF94C46002CD6D1B9
:10320000BDE8F88330B504463F2004F13C010BE0F3
:103210000D68AB682BB19D6895F83720824200DAC3
:1032200010460D6805F120010D68002DF0D130BD6C
:10323000024602F13C0002E0036803F1200003684B
:103240008B42F9D103681B6A036070470021034A6F
:103250001160034A11800180704700006C0000205B
:10326000700000202DE9F04105460C4616461F4629
:103270001548006880F8346000201349096881F817
:10328000350039461048006800F07CFC6CB104F150
:103290000808EC60012229460B48006800F016F887
:1032A0002946404600F088F807E0002006490968F2
:1032B000A1F84600044909680863034801682046EC
:1032C00000F018F8BDE8F081F400002010B5A0F877
:1032D0004620016300230AE000244C600C600C616E
:1032E0004C610C83CC61886020315C1CA3B293429A
:1032F000F2DB10BD30B548B14568C1F8BC5000F1F3
:103300000804226893681D6AC56113E091F834507F
:10331000022D02D0072D08D103E007A5C1F8BC504B
:1033200007E007A5C1F8BC5003E008A5C1F8BC50F0
:1033300000BF00BF30BD00005461736B205100001E
:103340005461736B2053656D000000002000000085
:1033500030B507A5C1F8BC5000F1080422681AB1C5
:1033600093681D6AC56101E001A5C56130BD00001B
:10337000200000002DE9F0410446256BB4F84670AA
:1033800011E0D5F80C8008F108063089012807D92A
:103390002946304600F05DF82946304600F00CF82A
:1033A0002035781E87B2002FEBD1BDE8F0810021D7
:1033B0000160416001817047F0B58E6896F8375022
:1033C00007893FB90127078100274F600F6001601F
:1033D000416023E007897F1C0781026806E094684A
:1033E00094F83770AF4200DD02E05268002AF6D14F
:1033F00000BF32B900274F6043680B6059604160DD
:103400000CE017682FB9116000270F604A60016057
:1034100004E013680B604A6059601160F0BD2DE94B
:10342000F0410446256BB4F846600AE0D5F80C80FC
:1034300008F108072946384600F00BF82035701EC1
:1034400086B2002EF2DC0020A4F846002063BDE81E
:10345000F08110B50489012C03D10024046044607C
:1034600011E00C6824B94A680024146002600AE084
:103470004C6824B90B6800245C60436003E00B686F
:103480004A685A6013600489641E048100244C60F9
:103490000C6010BD2DE9F84306460C4617469846C9
:1034A000089D94F8360008285BD2DFE800F0040598
:1034B00008090607323300BF00BF00BF52E000BF5B
:1034C00094F83400032807D143463A462146304653
:1034D000009500F04AF803E0A765A4F85C80A564B5
:1034E00036B12046FFF79BFF21463046FFF730FFFD
:1034F00094F83600032802D1204600F083FF2046CE
:1035000000F0ACF800203434A070607004F8340986
:1035100028E000BF94F83400032807D143463A4618
:1035200021463046009500F020F803E0A765A4F896
:103530005C80A56436B12046FFF771FF2146304616
:10354000FFF706FF94F83600072802D1204600F066
:1035500059FF04203434A0700020607004F834094E
:1035600000E000BF00BFBDE8F883F0B50446059E4B
:10357000086BB1F846500AE0C768A74204D104615D
:1035800042610383C66104E020306F1EBDB2002D8E
:10359000F2DC00BFF0BD000070B50025074C03E071
:1035A00005F12000C5B2241D20680028F8D020684D
:1035B000FCF73BFE2844C5B2284670BD3000002011
:1035C000002004E00021034A42F82010401C022899
:1035D000F8D370473000002030B5420900F01F03D7
:1035E0000121C3F11F04A140034C54F822400C43B5
:1035F000014D45F8224030BD3000002030B5420971
:1036000000F01F030121C3F11F04A140034C54F833
:1036100022408C43014D45F8224030BD300000204F
:103620000021034A1160034A1180018070470000A5
:10363000780000207C00002000210AE001EB41021C
:10364000054B03EB820000220281026042604A1CAB
:10365000D1B24029F2D37047803B002010B5044618
:1036600094F83700FFF7B8FF94F837000549097858
:10367000884203D1204600F027F802E0204600F0FF
:1036800003F810BD7200002010B590F8373003EB3E
:1036900043030C4C04EB83010B893BB901230B81E1
:1036A0000023C36003610860486009E00B895B1C6C
:1036B0000B810B68C360002303610A681061086016
:1036C00010BD0000803B002010B590F8373003EBB0
:1036D00043030B4C04EB83010B893BB901230B81A2
:1036E0000023C36003610860486008E00B895B1C2D
:1036F0000B810023C3604A680261D060486010BD3E
:10370000803B00202DE9F041054695F8370000EB9D
:103710004000124901EB80042F69EE6887B946B971
:10372000002020812060606095F83700FFF766FF79
:103730000EE02089401E208100203061266007E0D5
:103740002089401E2081FE600EB9676000E037616D
:1037500000202861E860BDE8F0810000803B002087
:1037600010B504480078012803D1FDF799FB024900
:10377000086010BD8C0000208000002010B50A48B1
:10378000007880B9FDF78CFB08490968441A08489D
:103790000068A04201D20648046006480068A042C2
:1037A00001D20448046010BD8C000020800000207D
:1037B00084000020880000200021034A1160034A91
:1037C00011800180704700009000002094000020CC
:1037D00086B00020009006E0A8490968480001AAC8
:1037E0000021FFF799F9A64800780128F4D101A833
:1037F000FEF764FA0027A3480068A04909688842D8
:1038000005D9A04800689D490968B0FBF1F727B9C0
:103810009C4800680A21B0FBF1F72EE1FDF740FB60
:10382000804600BF00BFFCF7F5FC009000BF00BF62
:10383000954800689549086000209349086000BFDA
:1038400000BF0098FCF7EAFC00BF00BF904800688A
:103850008E490968884248D98D4800688D49884258
:1038600005D242F2107003900120029023E08848B4
:1038700000688949884205D24FF47A7003900A2083
:10388000029018E0824800688449884203D264208C
:10389000039002900FE07E4800688149884205D27B
:1038A0000A2003904FF47A70029004E00120039004
:1038B00042F210700290764801680298B1FBF0FA6B
:1038C0007249039809684843B0FBFAF042F210715C
:1038D000081A74490880744800880988884208DA00
:1038E000704800887049088003E042F210706D490A
:1038F0000880FEF7EFFA002500BF00BFFCF78AFC46
:10390000009000BF00BF6948046800BF00BF009876
:10391000FCF784FC00BF00BF26E000BF00BFFCF73F
:1039200079FC009000BF00BF54F8980F6060002041
:1039300044F8980900BF00BF0098FCF76FFC00BF77
:1039400000BFD4F89C00054400BF00BFFCF762FC38
:10395000009000BF00BFD4F8B84000BF00BF00987F
:10396000FCF75CFC00BF00BF002CD6D145B3494832
:10397000854205D242F2107005904FF0010B1BE01A
:103980004548854205D24FF47A7005904FF00A0BF6
:1039900012E04248854203D26420059083460BE042
:1039A0003F48854204D20A2005904FF47A7B03E019
:1039B0000120059042F2107BB5FBFBF0049003E080
:1039C000002005900120049000BF00BFFCF722FCFE
:1039D000009000BF00BF3548046800BF00BF0098DA
:1039E000FCF71CFC00BF00BF2BE0D4F89C0005993D
:1039F00048430499B0FBF1F086B242F2107086425F
:103A000000D90646A4F88860B4F88A00B04201DA0A
:103A1000A4F88A6001AB04F1A802111D2046FEF74C
:103A20004BFE00BF00BFFCF7F5FB009000BF00BFDE
:103A3000D4F8B84000BF00BF0098FCF7EFFB00BF10
:103A400000BF002CD1D11A480078012805D10020F0
:103A50001749087001A8FEF731F9FDF721FAA0EB2C
:103A6000080914480068484502D21248C0F800907E
:103A700001AA00213846FFF74FF8CFE600500008B2
:103A8000A8000020185000089C000020A40000207E
:103A9000A0000020801A060000093D00005A6202C2
:103AA0000084D717980000209A000020B40000205E
:103AB00096000020AC00002010B58AB0044600201B
:103AC0001F4908601F4908601F4908601F490870A6
:103AD0001F4908701F48006820B946F62B602080F7
:103AE0000AB010BD1C4800681C490968884203D20E
:103AF00046F62C602080F3E7194800783F2803D36E
:103B000046F62A602080EBE7032000210591CDE9ED
:103B100007040691084610490968124A12680D4BBD
:103B20001B68CDE90132CDE903100D480078002370
:103B30000D4A0EA100901248FEF7D6F900BFCFE75C
:103B40009C000020A4000020A0000020A80000206D
:103B500096000020045000080C5000081450000883
:103B6000FC4F000808500008D137000875432F4F5C
:103B7000532D4949492053746174205461736B007B
:103B8000803E002070B504460D4645B12A462146C8
:103B9000064800F095FB032084F8360002E002207E
:103BA00084F836002046FFF7ADFD70BDCC00002044
:103BB0002DE9F04104460D4600BF002694F8377009
:103BC00094F8360008285FD2DFE800F004191E1FC1
:103BD0001A1B20212046FFF795FD84F8375094F8F2
:103BE0003700FFF7F9FC2C480068844203D12046D7
:103BF000FFF74AFD02E02046FFF766FD46E000BF02
:103C000000BF84F8375041E000BF00BF00BF84F818
:103C1000375094F83400082831D2DFE800F030043F
:103C200031050B06073200BF00BF00BF2046FFF77B
:103C3000A1FB27E02046FFF79DFB206BC068466A8A
:103C4000AF4205DD96F83700A84217DC002615E0E4
:103C500096F83700B84211D13046FFF7D3FA05463F
:103C600096F83800A84202DA96F8380000E02846B4
:103C7000054696F83700A84200D1002602E000BFB2
:103C800000BF00BF00BF01E0BDE8F08100BF3446C7
:103C9000002C92D100BFF7E7F40000200021C0F80B
:103CA000B4100949096819B90021C0F8B81007E033
:103CB00005490968C0F8B81003490968C1F8B4009B
:103CC0000149086070470000B4000020D0F8B4201B
:103CD000D0F8B8104AB90D4B196011B10023C1F8E2
:103CE000B4300023C0F8B8300FE029B90023C2F87F
:103CF000B830C0F8B43008E0C2F8B810C1F8B42049
:103D00000023C0F8B830C0F8B4307047B4000020C9
:103D10000021044A1160044A1180044A11600180A4
:103D200070470000B4000020B8000020B000002060
:103D300070B5044600202060A0606060E0602061F3
:103D40006061A061E06126A0206200206062A06244
:103D5000E062A064A065A4F85C00002104F16000AA
:103D6000FFF77AF9002020676067E067A4F8840015
:103D7000C4F88000002506E0002104F1780040F836
:103D80002510681CC5B2002DF6D000203434A06187
:103D9000E0662067E06084F85200A06760672082D8
:103DA000E0612062A4F85400A4F85600A065E06524
:103DB000FDF776F80646266600206066E06720700C
:103DC0006070A0704020E07020710020A060C4F8F6
:103DD0008000C4F8840004A0C4F88800343C70BD9E
:103DE0003F5461736B000000200000002DE9FC4788
:103DF00004460F4690469946DDE90A654FF0000AF1
:103E00000020288000BF00BFFCF704FA824600BFF4
:103E100000BF0CB92C48046894F83600082845D235
:103E2000DFE800F00405181906071A1B00BF00BFE1
:103E300000BF4B464246394604F16000CDE90065BB
:103E4000FFF712F900BF00BF5046FCF7E7F900BFCB
:103E500000BF36E000BF00BF00BF94F83400022866
:103E600013D143463A46214600200096FFF712FB45
:103E700000BF00BF5046FCF7D1F900BF00BF09F4F6
:103E8000004090B9FDF724FE0FE04B46424639460C
:103E900004F16000CDE90065FFF7E6F800BF00BF60
:103EA0005046FCF7BBF900BF00BF0AE000BF00BFEF
:103EB0005046FCF7B3F900BF00BF46F62D602880DE
:103EC00000BF00BFBDE8FC87F400002070B50446C9
:103ED0000D46002600BF00BFFCF79CF9064600BF58
:103EE00000BF0020288094F8360008285ED2DFE862
:103EF00000F0040506071227394B00BF00BF00BFC2
:103F000000BF00BF3046FCF789F900BF00BF47F291
:103F10005310288055E014F8860F401E207014F8C6
:103F2000860928B9002084F836002046FFF796FB62
:103F300000BF00BF3046FCF771F900BF00BF40E092
:103F400014F8860F401E207014F8860910B901205D
:103F500084F8360000BF00BF3046FCF75FF900BFB1
:103F600000BF2EE014F8860F401E207014F886095A
:103F700010B9022084F8360000BF00BF3046FCF7BD
:103F80004DF900BF00BF1CE014F8860F401E2070E2
:103F900014F8860910B9032084F8360000BF00BF6A
:103FA0003046FCF73BF900BF00BF0AE000BF00BF8E
:103FB0003046FCF733F900BF00BF46F62D6028807D
:103FC00070BD00BFFDF784FD00BFF9E708B50448E8
:103FD0000068FEF761FA69460020FEF759F808BD4F
:103FE000F40000202DE9F8430446884617461D4694
:103FF0004FF0000900BF00BFFCF70CF9814600BF7D
:1040000000BF0CB967480468A7640020288094F8B2
:104010003600082876D2DFE800F004055051060784
:10402000525300BF00BF00BF0420012804D0022863
:1040300013D0042833D122E0E06CFF280CD100BF5C
:1040400000BF4846FCF7EAF800BF00BF46F6C5507F
:1040500028800020BDE8F88322E04FF6FF71E06C75
:1040600088420BD100BF00BF4846FCF7D7F800BF1D
:1040700000BF46F6C55028800020EBE710E0E06C5A
:10408000401C58B900BF00BF4846FCF7C7F800BF46
:1040900000BF46F6C55028800020DBE700E000BFE7
:1040A00000BFE06C401CE064E66C00BF00BF484607
:1040B000FCF7B4F800BF00BF71E000BF00BF00BF55
:1040C00094F83400072815D100231A4621461846D3
:1040D0000097FFF7DFF9E66C00BF00BF4846FCF72A
:1040E0009DF800BF00BF08F4004000284AD1FDF74A
:1040F000EFFC47E00420012805D0022813D0042853
:1041000033D122E03FE0E06CFF280BD100BF00BFBD
:104110004846FCF783F800BF00BF46F6C55028802C
:10412000002097E722E04FF6FF71E06C88420BD148
:1041300000BF00BF4846FCF771F800BF00BF46F65D
:10414000C5502880002085E710E0E06C401C58B97D
:1041500000BF00BF4846FCF761F800BF00BF46F64D
:10416000C5502880002075E700E000BF00BFE06C6C
:10417000401CE064E66C00BF00BF4846FCF74EF808
:1041800000BF00BF0BE000BF00BF4846FCF746F889
:1041900000BF00BF46F62D602880002600BF00BF8C
:1041A000304657E7F400002070B504460D4600265F
:1041B00000BF00BFFCF72EF8064600BF00BF0CB9D9
:1041C0003D4804683C48006884420ED13B48007872
:1041D00000280ADD00BF00BF3046FCF71FF800BF13
:1041E00000BF46F66350288070BD0020288094F8F8
:1041F0003600082850D2DFE800F0041523313F4094
:104200004142042084F83600012084F886002046CC
:10421000FFF778FA00BF00BF3046FBF7FFFF00BF93
:1042200000BF44E0052084F83600012084F88600B1
:1042300000BF00BF3046FBF7F1FF00BF00BF36E014
:10424000062084F83600012084F8860000BF00BFF5
:104250003046FBF7E3FF00BF00BF28E0072084F8EB
:104260003600012084F8860000BF00BF3046FBF70F
:10427000D5FF00BF00BF1AE000BF00BF00BF94F829
:104280008600401C84F8860000BF00BF3046FBF764
:10429000C5FF00BF00BF0AE000BF00BF3046FBF70C
:1042A000BDFF00BF00BF46F62D6028809CE700BF21
:1042B000FDF70EFC00BF97E7F40000208C00002003
:1042C00070B51546066846B90D6500264E618E61CB
:1042D000C86101600126868033E0046802682B46CD
:1042E00024E0166D9E421DD396696EB90B650026BB
:1042F0008E614A61C861166DF61A1665916101609A
:104300008688761C86800CE094690B658C614A6116
:10431000C861166DF61A1665916161618688761C12
:10432000868070BD166D9B1B14465269002AD8D139
:104330000B658C6100264E61C86161618688761CC0
:10434000868000BFEDE700002DE9F04104460D46F0
:1043500090461F46B8F1040F0ED1284800682E1A67
:1043600016F5803F01D8002E3CD10020206547F291
:104370007E203880BDE8F081B8F1080F29D11F49AF
:10438000606D0968081AA84205D92E461B480068C6
:104390002844606526E01949606D0968081A2E1ADC
:1043A00016F5803F00D886B91449606D0968081A6F
:1043B000B0FBF5F005FB0050616D0844606500201E
:1043C000206547F27E203880D4E7606D2844606520
:1043D00008E00DB12E4605E00020206547F27E2062
:1043E0003880C7E7012084F8360032462146044869
:1043F000FFF766FF0020388000BFBBE7BC0000204D
:10440000C400002030B5C26983694169ABB929B9DC
:104410000024146094800465C4611EE000248C6153
:104420000C6D056D2C440C6511609488641E94809D
:10443000002444610465C4610FE0596121B18B61BE
:104440000C6D056D2C440C65002484619488641EF9
:104450009480002444610465C46130BD704700004D
:104460002DE9F0474FF0000900BF00BFFBF7D2FE77
:10447000814600BF00BFFCF713FD064600271D4D17
:104480002C683CB3206D401E20651FE0781C87B26D
:1044900094F83600012806D1002084F83600204622
:1044A000FFF7DCF806E094F83600052802D1042076
:1044B00084F83600606928602C6814B90020A88050
:1044C00007E0A888401EA8800020A061206D002879
:1044D000DCD000BFEF80FCF7E3FCA0EB060800BFD8
:1044E00000BF4846FBF79AFE00BF00BF4046BDE84C
:1044F000F0870000C40000202DE9F05F4FF0000BB2
:1045000000BF00BFFBF786FE834600BF00BFFCF77D
:10451000C7FC07464FF000083B4D2C68002C63D0C9
:10452000206D401E20655BE008F101001FFA80F855
:10453000002694F83400042802D1206BC068466A33
:104540000020A065A4F85C00FCF7AAFCA06420464B
:10455000FEF765FF94F83600032806D12046FFF7E2
:104560007DF8002084F8360006E094F8360007282D
:1045700002D1042084F83600032084F8350000209E
:1045800084F8340006B396F8370096F8381088425D
:104590001AD096F8370094F83710884214D1304674
:1045A000FEF730FE814696F83800484502DA96F864
:1045B000380000E04846814696F83700484503D069
:1045C00049463046FFF7F4FA606928602C6814B950
:1045D0000020A88007E0A888401EA8800020A061D5
:1045E000206D0028A0D000BFA5F80680FCF758FC7D
:1045F000A0EB070A00BF00BF5846FBF70FFE00BF45
:1046000000BF5046BDE8F09FCC00002008B5002751
:1046100028E06B46002211461046FDF749FFBDF821
:104620000000F8B900BF00BFFBF7F4FD074600BF6C
:1046300000BF0D480068401C0B49086000BF00BF68
:104640003846FBF7EBFD00BF00BFFFF709FF06464A
:10465000FFF752FF0546741904480068A04201D2D2
:1046600002480460D5E70000BC000020C000002024
:1046700010B58AB00446002020490860204908602F
:10468000204908601E498880C8801E498880C880EB
:104690001D48006820B947F2122020800AB010BDE2
:1046A0001A4800681A490968884203D247F2132061
:1046B0002080F3E7174800783F2803D347F2112002
:1046C0002080EBE70B2000210591CDE9070406913E
:1046D00008460E490A68104909680B4B1B68CDE96A
:1046E0000131CDE903200B48007800230B4A0CA1CF
:1046F00000901048FDF7F8FB00BFCFE7BC0000209A
:10470000C4000020CC0000202050000828500008E1
:10471000145000081C500008245000080D460008E2
:1047200075432F4F532D494949205469636B2054D9
:1047300061736B00403F002010B58AB00446002032
:104740002F4908602F4908602F4908802F480068CA
:1047500040B12F4800682D490968B0FBF1F02D49A0
:10476000086006E02A4800680A21B0FBF1F02949F8
:104770000860284800682849086000202749086028
:1047800027490860224627A12A48FCF7BBFF20885A
:1047900008B10AB010BD2848006818B947F2473080
:1047A0002080F6E72548006825490968884203D239
:1047B00047F248302080ECE7224800783F2803D3B6
:1047C00047F246302080E4E70B20002105910A469D
:1047D000CDE907040691194800681B490968164B82
:1047E0001B68CDE90131CDE90302164800780023AA
:1047F000164A17A100901C48FDF776FB00BFC8E7DA
:10480000D4000020DC000020D80000203450000834
:1048100018500008EC000020F0000020E800002004
:10482000E40000204F5320546D72204D757465785C
:1048300000000000004000203850000840500008F0
:1048400014500008305000083C5000088948000807
:1048500075432F4F532D4949492054696D65722086
:104860005461736B00000000304000200EB502A8B8
:1048700001AB0022114600900148FCF77BFF0EBD02
:1048800000400020704700001CB53FE001AB6A46C5
:1048900000210846FDF70CFEFFF7E8FFFCF700FBE0
:1048A00006461B480068401C1949086019480468FE
:1048B0001FE001A8FDF75EF9D4F81080A069401E42
:1048C000A061A06980B9A08C022802D1206AA061F1
:1048D00005E0204600F022F8032084F82600A568B1
:1048E00015B12046E168A847444601A8FDF772F9D2
:1048F00000BF002CDDD1FCF7D3FA871B00F030F8A5
:1049000005480068B84201D203480760BEE70000CE
:10491000E8000020DC000020E400002010B50E4B71
:104920001B68834206D101690B4B196039B1002322
:104930004B6104E0416902690A6102B151610123DE
:1049400080F82630002303614361044B1B885B1E03
:10495000024C238010BD0000DC000020D8000020A5
:1049600008B56A4600210248FCF7ECFF08BD0000CC
:104970000040002029B1064A12680243044B1A6025
:1049800004E0034A12688243014B1A60704700003A
:104990003038024029B1064A12680243044B1A60BB
:1049A00004E0034A12688243014B1A60704700001A
:1049B0004038024029B1064A12680243044B1A608B
:1049C00004E0034A12688243014B1A6070470000FA
:1049D00020380240F0B500210022002402250026E4
:1049E0000223324F3F6807F00C0121B1042905D0A2
:1049F000082937D105E02E4F076036E02D4F0760BC
:104A000033E02A4F3F1F3F68C7F38056274F3F1FB1
:104A10003F6807F03F036EB1264FB7FBF3F7DFF8AF
:104A20008CC0ACF1040CDCF800C0CCF3881C07FB94
:104A30000CF40CE01E4FB7FBF3F7DFF870C0ACF1DD
:104A4000040CDCF800C0CCF3881C07FB0CF4174FF7
:104A50003F1F3F68C7F301477F1C7D00B4FBF5F79C
:104A6000076002E0124F076000BF00BF0F4F3F68B2
:104A700007F0F0010909104F7A5C0768D7404760DA
:104A80000A4F3F6807F4E051890A0B4F7A5C476888
:104A9000D7408760054F3F6807F46041490B064FD8
:104AA0007A5C4768D740C760F0BD00000838024014
:104AB0000024F40040787D010000002070470000D1
:104AC0000CB50020019000904148006840F480300F
:104AD0003F49086000BF3E48006800F40030009085
:104AE0000198401C0190009818B90198B0F5A04FAA
:104AF000F1D13748006800F4003010B10120009077
:104B000001E0002000900098012860D1304840303A
:104B1000006840F080502E49403108602D48006800
:104B200040F440402B490860294808300068284973
:104B3000083108600846006840F4004008600846F4
:104B4000006840F4A05008602348091F0860081F4F
:104B5000006840F08070091F086000BF1C480068B2
:104B600000F000700028F9D01A48006840F4803046
:104B70001849086000BF1748406800F480300028DA
:104B8000F9D01448006840F400301249086000BFB2
:104B90001048406800F400300028F9D040F2057059
:104BA0000E4908600A480830006820F003000849F0
:104BB000083108600846006840F00200086000BF45
:104BC00003480830006800F00C000828F8D10CBD3C
:104BD0000038024000700040195A4007003C024073
:104BE00010B51548006840F4700013490860134878
:104BF000006840F001001149086000200F490831A9
:104C000008600E4800680E4908400C4908600D48CD
:104C1000091D0860081F006820F48020091F086033
:104C2000002006490C310860FFF74AFF4FF0006092
:104C300001498039086010BD88ED00E0003802406D
:104C4000FFFFF6FE103000241CB5FCF735FC40F2E7
:104C500025511B4800F055F878B3194800F00AF9BF
:104C60001849194A1278885417480078401C164988
:104C7000087008460078012805D1124800785528A8
:104C800001D00020087010480078022806D10D4895
:104C90004078662802D000200B4908700A48007846
:104CA00008280ADD00200849087001A8002309220D
:104CB000044900900548FDF79BFBFCF713FC1CBD65
:104CC000004400400421002026000020C4040020ED
:104CD00021B1828942F40052828104E082894DF63A
:104CE000FF731A408281704702460020B1F5007FB1
:104CF00000D100BF13880B400BB1012000E0002061
:104D0000704770B50246002400230025002040F6BD
:104D10006A16B14200D100BFC1F3421501F01F0372
:104D2000012606FA03F3012D02D19689334006E0ED
:104D3000022D02D1168A334001E0968A33400C12CC
:104D4000012606FA04F41688344013B10CB1012090
:104D500000E0002070BDF0B50346002400260025C9
:104D6000002040F66A17B94200D100BF1846C1F3CF
:104D7000421401F01F06012707FA06F5012C01D1A4
:104D80000C3004E0022C01D1103000E014301AB1D4
:104D900007682F43076002E00768AF430760F0BD74
:104DA0002DE9FF4705460E460024A14600BFA04658
:104DB000B08900B100BF2C8A24F44054F088044329
:104DC0002C82AC8941F20C608443B088318908435D
:104DD000718908430443AC81AC8A24F44074B089DF
:104DE0000443AC826846FFF7F5FD2048854202D0B7
:104DF0001F48854202D1DDF80C9001E0DDF80890F3
:104E0000A88900F4004040B109EBC90000EB09108B
:104E100031684900B0FBF1F707E009EBC90000EB8E
:104E2000091031688900B0FBF1F76420B7FBF0F09E
:104E300004012009642101FB1078A88900F40040D6
:104E400040B1322000EBC800B0FBF1F000F00700E9
:104E5000044308E0322000EB08106421B0FBF1F0BD
:104E600000F00F0004432C81BDE8FF8700100140D3
:104E70000014014001468888C0F308007047C1F360
:104E800008028280704700BFFEE770B504460D46F9
:104E900029462046FFF7F3FF00BF80212046FFF799
:104EA00023FF0028F9D070BD2DE9F04107460D46DB
:104EB0001646002400BF295D3846FFF7E6FF641C54
:104EC000B442F8D3BDE8F08170B506460C46002523
:104ED00000BF615D3046FFF7D8FF6D1C605D0028A4
:104EE000F7D170BD014A024900F013B8354F0008F0
:104EF0000001002002E008C8121F08C1002AFAD1F0
:104F000070477047002001E001C1121F002AFBD149
:104F100070472DE9F04116460F460446002503E090
:104F20003946B047641C6D1C20780028F8D128460B
:104F3000BDE8F08170B504460D46E1B20548FFF7C3
:104F40009EFF00BF80210348FFF7CEFE0028F9D066
:104F5000204670BD0044004000B58BB00AA8FCF7A5
:104F6000E5F90AA8032100220592CDE9062108905F
:104F7000052080210C22094BCDE90132CDE9031037
:104F800002200023064A07A100900A48FCF7ACFF64
:104F90000AA8FCF75FFE00200BB000BD440600200D
:104FA000F5030008417070205461736B20537461E5
:104FB0007274000004010020342D0020060000005F
:104FC00040000000000100000000000000000000A0
:104FD00000000000000000000000000000000000D1
:104FE00000000000342E002064000000900100004A
:104FF0006400000040060000C42F00200B000000E9
:105000000A000000043600200A00000064000000CE
:105010009001000040000000E803000001000000D3
:10502000943700200A000000640000009001000096
:105030000B0000000A000000243900200A000000D4
:105040006400000090010000800D000001010100DB
:10505000785634120001000000000000000000003B
:105060000000000000000000000000000000000040
:105070000000000000000000000000000000000030
:1050800001010100280004000000000000000000F1
:105090000000000000000000000000000000000010
:1050A00000000000000000000000000001002000DF
:1050B000010010000C0010000000000000000000C3
:1050C00000000000000000000000000000000000E0
:1050D00000000000000000000000000000000000D0
:1050E000000000000000000001010100300001008C
:1050F00020000C0020004000080004000000000018
:10510000000000000000000000000000000000009F
:10511000000000000000000000000000000000008F
:10512000000000000000000000000000010101017B
:10513000300000000000000000000000000000003F
:10514000000000000000000000000000000000005F
:10515000000000000000000000000000010101014B
:1051600028000C00000300000401010101010101FD
:1051700001000101C0000800010100000000000062
:10518000000000000000000000000000000000001F
:10519000000000000000000000000000000000000F
:1051A00000000000000000000000000001013000CD
:1051B000C4760000F1060000D8510008000000206D
:1051C00004010000F44E0008DC5200080401002035
:1051D000EC4F0000044F000800000000010203042F
:1051E0000102030406070809000000000000000097
:1051F000000000002D002000000000000000000062
:10520000000000000000000000000000000000009E
:10521000000000000000000000000000000000008E
:10522000000000000000000000000000000000007E
:10523000000000000000000000000000000000006E
:10524000000000000000000000000000000000005E
:10525000000000000000000000000000000000004E
:10526000000000000000000000000000000000003E
:10527000000000000000000000000000000000002E
:10528000000000000000000000000000000000001E
:10529000000000000000000000000000000000000E
:1052A00000000000000000000000000000000000FE
:1052B00000000000000000000000000000000000EE
:1052C00000000000000000000000000000000000DE
:0C52D000000000000000000000000000D2
:04000005080001AD41
:00000001FF
